:020000040800F2
:10000000104B012011F0000815F0000817F000084F
:1000100019F000081BF000081DF000081FF0000890
:100020001FF000081FF000081FF000081FF0000874
:100030001FF000081FF00008FFB501085F910008DD
:10004000931A00089D1A0008A71A0008B11A0008A0
:10005000BB1A0008C51A0008CF1A0008D91A0008F0
:10006000E31A0008ED1A0008F71A0008011B00083F
:100070000B1B0008151B00081F1B0008291B00088C
:10008000331B00083D1B0008471B0008511B0008DC
:100090005B1B0008651B00086F1B0008791B00082C
:1000A000831B00088D1B0008971B0008A11B00087C
:1000B000AB1B0008B51B0008BF1B0008C91B0008CC
:1000C000D31B0008DD1B0008E71B0008F11B00081C
:1000D000FB1B0008051C00080F1C0008191C000869
:1000E000231C00082D1C0008371C0008411C0008B8
:1000F0004B1C0008551C00085F1C0008691C000808
:10010000731C00087D1C0008871C0008911C000857
:100110009B1C0008A51C0008AF1C0008B91C0008A7
:10012000C31C0008CD1C0008D71C0008E11C0008F7
:10013000EB1C0008F51C0008FF1C0008091D000846
:10014000131D00081D1D0008271D0008311D000893
:100150003B1D0008451D00084F1D0008591D0008E3
:10016000631D00086D1D0008771D0008811D000833
:100170008B1D0008951D00089F1D0008A91D000883
:10018000B31D0008DFF80CD01BF0EAF90048004767
:10019000D5030008104B01209CB0AEA000681A9057
:1001A00000BF00BF00BF642101A81BF086F900BF9B
:1001B00000BF05E01BAA00214FF47A700EF0FEF894
:1001C000F8E70EB51DE04FF47A71002002F07DFBD8
:1001D00070B90421A04803F0E2FF012804D10421F2
:1001E0009D4803F0EBFF03E004219B4803F0E4FF8C
:1001F00002A800210B460122CDE9001008460EF0AE
:1002000038F9E0E70EB517E00821934803F0C7FF7F
:10021000012804D10821904803F0D0FF03E0082111
:100220008D4803F0C9FF02A800210B460122CDE949
:10023000001008460EF01DF9E6E710B58AB000245C
:1002400009A8032100220592CDE906210890104655
:1002500080210C22814BCDE90132CDE9031005202C
:1002600000237F4A7FA1009081480CF0B2FD09A8CD
:10027000032100220592CDE9062108901046802135
:100280000C227C4BCDE90132CDE90310052000237F
:10029000794A7AA100907C480CF09BFD09A80321C3
:1002A00000220592CDE906210890104680210C22FB
:1002B000764BCDE90132CDE9031005200023744AC5
:1002C00074A1009077480CF084FDBDF8242076A13D
:1002D0007B4802F041F900F098FF00F0C8FF0FF0F2
:1002E00033FB0AB010BD70B504460D4675A17448C5
:1002F00002F032F970BD10B502460B460020002115
:1003000010BD00B585B004A80021AFF2150202238C
:10031000CDE90032CDE9021042F210734FF4FA72C7
:100320006CA16E480EF089FABDF810206CA16448EB
:1003300002F012F904A969480EF046FC04A8002155
:10034000AFF25D020123CDE90032CDE902100B4688
:10035000642266A167480EF070FA04AB012266A120
:1003600068480BF098FA04AB012267A169480BF0CA
:1003700092FA04AB012268A16A480BF08CFA04AB34
:10038000012269A16A480BF086FA05B000BDF8B5F4
:1003900006460025002408F0F1F801F0D8F9684677
:1003A0000CF0C9F96A460121084609F0A4F900BF1A
:1003B00000BF08F0D9FD044600BF00BFFFF7A1FF52
:1003C000FFF73BFF00BF00BF204608F0D1FD00BF94
:1003D00000BFF8BD8AB000BF00BF002401F065F97E
:1003E00008F0CCF809A808F05DFF00BF00BF08F0D6
:1003F000BBFD044600BF00BF09A8032100220592EF
:10040000CDE906210890104680210C22494BCDE908
:100410000132CDE9031002200023474A47A1009092
:100420004A480CF0D6FC00BF00BF204608F0A0FDF3
:1004300000BF00BF09A809F0FEF900BFFEE708B53C
:1004400000BF05E06A4600214FF47A700DF0B6FF58
:10045000F8E700003342000000080240A805002031
:10046000050200086C656430207461736B00000045
:10047000E40400206C080020C30100086C656431AE
:10048000207461736B000000A8070020F40D0020A9
:10049000990100086574685F696E69745F746173BF
:1004A0006B000000300D00206574685F696E697430
:1004B0005F7461736B206572723D25640D000000EE
:1004C00000480040677072735F63616C6C626163C7
:1004D0006B0D0000746D723100000000381B0020AD
:1004E0000D20657272313D25640D000067707273D6
:1004F000000000006C1B0020757361727431206D68
:1005000073670000181A0020757361727432206DD1
:1005100073670000481A0020757361727433206D90
:1005200073670000781A0020657468206D73670097
:10053000081B0020E40200208F0300084170702097
:100540005461736B205374617274000020020020A8
:100550000CB50020019000906B48006840F480309A
:100560006949086000BF6848006800F400300090E6
:100570000198401C0190009818B90198B0F5A06F3F
:10058000F1D16148006800F4003010B10120009002
:1005900001E0002000900098012838D15A48083026
:1005A00000685949083108600846006840F4004076
:1005B00008600846006840F4A05008605348091FCE
:1005C0000860081F006840F08070091F086000BFC5
:1005D0004D48006800F000700028F9D040F2037028
:1005E0004B49086048480830006820F0030046493D
:1005F000083108600846006840F00200086000BF4B
:1006000041480830006800F00C000828F8D10CBD03
:1006100010B53D48006840F001003B4908600020EB
:10062000394908310860384800683A490840364975
:1006300008603948091D0860081F006820F4802000
:10064000091F0860002030490C310860FFF780FF67
:100650004FF000603149086010BD70B500200022E5
:10066000022300240221284D08352D6805F00C00D6
:1006700020B1042806D0082834D107E0284D294E9F
:10068000356033E0284D274E35602FE01E4D2D1D7F
:100690002D68C5F380541C4D2D1D2D6805F03F01BC
:1006A00054B1214DB5FBF1F5174E361D3668C6F332
:1006B000881605FB06F209E0194DB5FBF1F5124E5F
:1006C000361D3668C6F3881605FB06F20E4D2D1D45
:1006D0002D68C5F301456D1C6B00B2FBF3F5114E9F
:1006E000356003E00E4D0F4E356000BF00BF064D74
:1006F00008352D68C5F303150C4E705D094D2D6846
:10070000C540084E356070BD00380240193C4005B8
:10071000003C0240FFFFF6FE1030002408ED00E030
:100720000024F4000000002040787D010400002037
:10073000F0B502460B464FF6FF700024002500215D
:1007400011E012F8016B704000210AE000F0010690
:1007500026B14AF2010686EA600000E040104E1C15
:10076000F1B20829F2DB1E1EA3F10103E9D1F0BDAD
:100770002DE9F04FADF5037D80460F4691469A4630
:100780000024A3460020829000254FF4007102A8A7
:100790001AF093FE0026012001900020009007F13E
:1007A000160085B23A208DF80800E8B28DF80900ED
:1007B00028128DF80A003A208DF80B0046F0010649
:1007C00000BF00BF0AF0FF008DF80C004FEA2A209E
:1007D0008DF80D008DF80E6030128DF80F0000BFFF
:1007E00006E0002102AA04F108001154601C84B242
:1007F000042CF6DB0198C0B28DF8140001980012A9
:100800008DF815000098C0B28DF8160000980012FF
:100810008DF81700FC4800788DF81800FA48008819
:1008200000128DF81900002406E0FF2102AA04F14D
:1008300012001154601C84B2082CF6DB002407E07F
:1008400018F8011B02AA04F11A001154601C84B2AA
:10085000BC42F5DB294603A8FFF76AFF834602AADC
:10086000281D02F800B04FEA2B21681D11541621F3
:10087000A81D115407F11D0080B28290B9F1000F3C
:1008800004D1E248829901F0EEFE08E0B9F1010FCF
:1008900005D102A9DE48829A00680EF021FE0120EF
:1008A0000DF5037DBDE8F08FF0B59BB005466421E2
:1008B00002A81AF002FE0024002602270020009061
:1008C000019000BF04E03046761C02A90C54641C61
:1008D000062CF8D3B1B23B462A4602A8FFF748FFE0
:1008E0001BB0F0BD2DE9F0439BB00646642102A881
:1008F0001AF0E3FD002400254FF0010900200090CC
:1009000001904FF4817740F2031800BF06E01DF814
:10091000042028466D1C02A90A54641C062CF6D338
:1009200028466D1C02A90F543A1228466D1C0A5421
:1009300028466D1C01F800804FEA282228466D1CCD
:100940000A54002405E0002228466D1C02A90A541E
:10095000641C062CF7D3002405E0002228466D1CF9
:1009600002A90A54641C062CF7D3002405E03322A4
:1009700028466D1C02A90A54641C082CF7D3A9B29E
:100980004B46324602A8FFF7F3FE1BB0BDE8F083EA
:10099000F0B599B00446642168461AF08EFD002730
:1009A000002503262946334622466846FFF7E0FE27
:1009B00019B0F0BD10B503460C460021997C11B169
:1009C000012902D100E002E001E0002010BD00BFDB
:1009D0000120FBE710B503460C460021997C11B1BC
:1009E000012902D100E002E001E0002010BD00BFBB
:1009F0000120FBE710B503460C460021012010BD85
:100A000070B503460C46154600220021997C052945
:100A10000DD2DFE801F00308090A0B0001207D4E2A
:100A200086F8400005E004E003E002E001E0002079
:100A300070BD00BF0120FBE72DE9F04104460F46E1
:100A400090461D460226241DF81F87B214F8010B9C
:100A5000288014F8011B288800EB0120288014F856
:100A6000016B14F8011B06EB012086B206F00100B1
:100A700038B1324668A16E4801F06EFD0220BDE833
:100A8000F08106F00200022824D1324669A16848AC
:100A900001F062FD2888012805D0022809D0A0F2C3
:100AA0000110A8B90BE0424639462046FFF7A8FFDF
:100AB000E5E7424639462046FFF79CFFDFE7002086
:100AC00062490870424639462046FFF783FFD6E761
:100AD0000020D4E7288803280BD142463946204617
:100AE000FFF768FF012803D14046FFF751FFC6E733
:100AF00001E00020C3E700BF0020C0E72DE9F04778
:100B000080460E4600250024A14600275048006874
:100B100004280ED24FF400714E481AF0CEFC00208B
:100B20004B4908604CA1424801F016FD0020BDE889
:100B3000F087002506E04748405D3A2800D105E0EF
:100B4000681C85B2424800688542F4D300BFB5F501
:100B5000007F0DDB4FF400713E481AF0AEFC002020
:100B60003B49086044A1324801F0F6FC0020DEE772
:100B700037480068421B374841191AF085FC344851
:100B80000068401B324908600846006805280DD2FD
:100B90004FF400712F481AF090FC00202C49086097
:100BA0003FA1234801F0D8FC0020C0E72948C078C5
:100BB0003A280DD04FF4007126481AF07EFC002030
:100BC000234908603EA11A4801F0C6FC0020AEE7A8
:100BD000204884784FF6FF7000EA04241D484078CE
:100BE0000443B4F5007F0DDD4FF4007119481AF08D
:100BF00064FC0020164908603BA10D4801F0ACFCE4
:100C0000002094E782E0000018000020004400402B
:100C100040010020A01B00204750525320637472F3
:100C20005F756E69742055443D2025640D000000F9
:100C30000048004047505253206374725F756E69DC
:100C400074204D533D2025640D0000003A00002023
:100C50001C000020EC1B00200D2066617463685F9F
:100C6000677072735F6461746120746F6F20736D5D
:100C7000616C6C0D0A0000000D2066617463685F92
:100C8000677072735F64617461206E6F2054454CAD
:100C9000454752414D5F484541440D0A0000000060
:100CA0000D2066617463685F677072735F6461745E
:100CB0006120746F6F2073686F72740D0A000000FA
:100CC0000D2066617463685F677072735F6461743E
:100CD00061206E6F2054454C454752414D5F53593A
:100CE0004E430D0A000000000D2066617463685FCA
:100CF000677072735F6461746120627566666572A5
:100D0000206F766572666C6F770D0A00BF480068C9
:100D1000A0424BD3BE49A01D085C16283DD12146F8
:100D2000BB48001DFFF704FD8146601DB8490F5CFC
:100D30004FF6FF7000EA0727201D085C384487B291
:100D4000B9451CD1E01D3080328840461AF09CFB2A
:100D5000AE480168E01D081AAC4908604FF4007104
:100D6000AB481AF0AAFB0020A84908600846008892
:100D700081B2A74AA74801F076FC0120D7E64FF4DC
:100D80000071A3481AF099FB0020A0490860A2A1B5
:100D9000A04801F0E1FB0020C9E64FF400719C4837
:100DA0001AF08BFB002099490860C0E64FF40071EF
:100DB00097481AF082FB00209449086000BFB6E60D
:100DC000ADF5047D00208290002600240025002738
:100DD00000BF00BF00BF98A18E4801F0BDFB5FE0DF
:100DE0009C480078012822D100209B49087099492D
:100DF000087001A902A8FFF781FEB8B182AB0122F9
:100E0000BDF8041002A8FFF717FE0646012E0DD10B
:100E100001F035FD9149086014B1012C04D101E0C5
:100E2000012402E0002500E000BF00BF32E024B151
:100E3000012C14D0032C2BD129E00120FFF752FD07
:100E40004FF4007172481AF038FB00206F490860B7
:100E500001F015FD81490860781CC7B219E001F066
:100E60000EFD7E490968401A7D4988420ED36D1CEB
:100E7000052D04D3002079490860002506E00120F3
:100E8000FFF712FD01F0FBFC7449086001E000E08F
:100E900000BF00BF83AA00214FF47A700DF08EFAD4
:100EA0009EE710B58AB0002400BF00BF08F05CF8D0
:100EB000044600BF00BF6BA1564801F04DFB09A8D6
:100EC000032100220592CDE90621089010464FF437
:100ED00016713C226B4BCDE90132CDE903100520A0
:100EE0000023694A69A100906C480BF072FF00BFB3
:100EF00000BF204608F03CF800BF00BF09AA00214F
:100F00000A200DF05BFABDF8240018B164A1414835
:100F100001F022FB0AB010BDF0B59BB0064664217B
:100F200002A81AF0CAFA0024002540F20117002096
:100F30000090019000BF05E0002228466D1C02A928
:100F40000A54641C042CF7D3002405E0112228461F
:100F50006D1C02A90A54641C042CF7D3002405E07C
:100F6000222228466D1C02A90A54641C042CF7D3C3
:100F7000002405E0332228466D1C02A90A54641C93
:100F8000042CF7D3012228466D1C02A90A54002420
:100F900005E0442228466D1C02A90A54641C062C54
:100FA000F7D3002405E0552228466D1C02A90A54F7
:100FB000641C1E2CF7D3A9B23B46324602A8FFF7A9
:100FC000D7FB1BB0F0BD10B5024600200AE012F8B6
:100FD000014B84EA2023DBB2364C34F8133083EA29
:100FE000002398B20B1EA1F10101F0D110BD10B584
:100FF00040F20221304800681AF05FFA10BD034643
:101000001B1DC81F80B20146704700001C00002055
:10101000EC1B0020004800400D2066617463685F8F
:10102000677072735F6461746120637263206572BC
:10103000726F720D0A0000000D2070726F746F6382
:101040006F6C5F7461736B5F66756E2E2E2E2E2E25
:101050002E0D000048010020430000201400002055
:10106000C0D401000D2070726F746F636F6C5F7479
:1010700061736B5F6372656174652E2E2E2E2E2E4A
:101080000D000000B8100020C10D000870726F74D0
:101090006F636F6C5F7461736B000000F40F00206E
:1010A0000D207261777564705F7461736B20666187
:1010B000696C0D009CB80108340000202DE9F04750
:1010C000804689469246002500260027002440F2EB
:1010D0000114A4F2011010B1012805D103E0012090
:1010E000FFF71AFF00E000BF00BF0120BDE8F08756
:1010F0009EB000201C90642103A81AF0DEF903AC16
:101100002AE01DA800211CAB4FF40042CDE90010DD
:1011100068480AF0F9FC044667480078012811D1B4
:101120000122BDF870102046FFF7C8FF2246BDF827
:101130007010624801F097FA40F20221604800689E
:101140001AF0BBF91DA800214FF4FA730A46CDE945
:10115000001008460DF08DF9D3E700B58BB00AA852
:10116000032100220592CDE90621089010464FF494
:1011700016713C22534BCDE90132CDE90310052015
:101180000023514A51A1009053480BF022FEBDF8B4
:10119000280018B151A1494801F0DEF90BB000BD9B
:1011A0009EB000201C90642103A81AF086F903ACBD
:1011B0002AE01DA800211CAB4FF40042CDE900102D
:1011C0004D480AF0A1FC04464C480078012811D192
:1011D0000322BDF870102046FFF770FF2246BDF8CD
:1011E0007010364801F03FFA40F20221444800688E
:1011F0001AF063F91DA800214FF4FA730A46CDE9ED
:10120000001008460DF035F9D3E700B58BB00AA8F9
:10121000032100220592CDE90621089010464FF4E3
:101220007A716422374BCDE90132CDE903100420F5
:101230000023354A35A1009037480BF0CAFDBDF8B0
:10124000280018B125A11D4801F086F90BB000BD9A
:101250009AB000BF642168461AF02FF900BF05E07C
:1012600019AA00214FF4FA700DF0A8F8F8E700B5BC
:101270008BB00AA8032100220592CDE9062108902F
:10128000104680210C22254BCDE90132CDE9031017
:1012900005200023224A23A1009026480BF099FD47
:1012A000BDF8280018B124A1044801F055F90BB08D
:1012B00000BD0000181A002038000020004800403F
:1012C00020000020B01E0020F1100008757361722C
:1012D0007431207461736B00EC1D00200D20757358
:1012E000617274335F7461736B5F6372656174659F
:1012F000206661696C0D0000781A00203A00002019
:1013000028000020D4280020A11100087573617204
:101310007433207461736B0010280020383900206A
:10132000511200087472616E736C6174652074618F
:10133000736B0000743800200D207472616E736C42
:101340006174655F7461736B5F637265617465205E
:101350006661696C0D00000010B5FFF759F90121B5
:10136000072003F07FF90121382003F07BF90121E8
:101370004FF4E07003F076F90121FB4803F0A5F982
:101380000121FA4803F0A1F90121080303F0AEF9A5
:101390000121880303F0AAF901214FF0606003F0F6
:1013A00061F910BD1CB54FF48070009002208DF8DB
:1013B000040000208DF8060003208DF805000120B0
:1013C0008DF807006946EA4802F07AFE00220821FB
:1013D000E74802F000FF00214FF4800003F062F8BC
:1013E0001CBD1CB5FFF7DEFF4FF40050009001203C
:1013F0008DF8040000208DF8060003208DF805000C
:1014000000208DF807006946DA4802F059FE862070
:10141000009003208DF8050002208DF804000020C4
:101420008DF806008DF807006946D14802F048FEA5
:101430000B220121CE4802F0CEFE0B220221CC4825
:1014400002F0C9FE0B220721C94802F0C4FE4FF486
:10145000605000906946C84802F032FE0B221146E7
:10146000C54802F0B8FE0B220C21C34802F0B3FEBF
:101470000B220D21C04802F0AEFE322000906946DA
:10148000BE4802F01DFE0B220121BC4802F0A3FE63
:101490000B220421B94802F09EFE0B220521B74819
:1014A00002F099FE1CBD1CB508220221B34802F0CF
:1014B00092FE08220221AF4802F08DFE0722082189
:1014C000AC4802F088FE07220921AA4802F083FEF8
:1014D0000820009001208DF8040000208DF80600FF
:1014E00003208DF8050001208DF807006946A34808
:1014F00002F0E6FD0420009001208DF80400002099
:101500008DF8060003208DF8050001208DF80700F6
:1015100069469A4802F0D4FD4FF4407000900220D2
:101520008DF8040000208DF8060002208DF80500DB
:1015300001208DF8070069468E4802F0C1FD0420A5
:10154000009002208DF8040000208DF80600022093
:101550008DF8050001208DF807006946874802F0E4
:10156000AFFD0420009002208DF8040000208DF8CB
:10157000060002208DF8050001208DF8070069465D
:101580007C4802F09DFD052203217B4802F023FEEA
:1015900005220421784802F01EFE052211467648F5
:1015A00002F019FE3820009002208DF8040000207F
:1015B0008DF8060003208DF8050001208DF8070046
:1015C00069466D4802F07CFD4FF400400090012018
:1015D0008DF8040000208DF8060003208DF805002A
:1015E00001208DF807006946614802F069FD1CBDC5
:1015F00008B54FF4E06002F0F7FB26208DF80000FC
:1016000001208DF8010000208DF8020001208DF8E6
:101610000300684602F0EDFB27208DF80000012052
:101620008DF801008DF802008DF80300684602F085
:10163000E0FB35208DF8000001208DF8010002202C
:101640008DF8020001208DF80300684602F0D1FBFE
:101650001D208DF8000000208DF8010002208DF87B
:10166000020001208DF80300684602F0C2FB022050
:101670008DF8000000208DF8010003208DF8020095
:1016800001208DF80300684602F0B3FB3D208DF881
:10169000000000208DF8010001208DF802008DF877
:1016A0000300684602F0A5FB08BD10B5FFF754FE25
:1016B000FFF79EFFFFF7F7FEFFF793FE4FF4E130D1
:1016C00000F0C6FD4FF4E13000F03EFE4FF4E13093
:1016D00000F0C0FE772140F2F31001F0A7F800F00F
:1016E0009AFB01F0EEF910BD10B50121402002F087
:1016F000CAFF2348006840F00800214908600846F6
:10170000006840F00400086000BF1D48001D00682C
:1017100000F001000028F8D0194808300468184883
:10172000006820F00800164908600846006820F0AC
:10173000040008600021402002F0A5FF204610BDF3
:101740001FB5684602F0F9FE019804B010BD70B5EF
:10175000FFF7F6FF04460B480068B4FBF0F5284697
:1017600007F017FD70BD0000020016000000041015
:1017700000000240000C0240000402400008024049
:101780000008065090BC010810B58148006840F080
:1017900080707F49086000207E49486008460068E4
:1017A00040F001000860FFF7CBFF0446204606F03A
:1017B00056FF10BD7748406870471CB507220A21C4
:1017C000754802F008FD07220B21734802F003FD63
:1017D00007220221714802F0FEFC072203216F4814
:1017E00002F0F9FC0820009001208DF80400002090
:1017F0008DF8060003208DF8050001208DF8070004
:101800006946674802F05CFC0420009001208DF8D6
:10181000040000208DF8060003208DF8050001204B
:101820008DF8070069465E4802F04AFC0C200090E3
:1018300002208DF8040000208DF8060002208DF8AB
:10184000050001208DF807006946544802F038FC75
:101850004FF44060009002208DF8040000208DF8C5
:10186000060002208DF8050001208DF8070069466A
:10187000494802F025FC05220321474802F0ABFC51
:1018800005220421444802F0A6FC052211464248E4
:1018900002F0A1FC3820009002208DF80400002006
:1018A0008DF8060003208DF8050001208DF8070053
:1018B0006946394802F004FC4FF4004000900120D2
:1018C0008DF8040000208DF8060003208DF8050037
:1018D00001208DF807006946304802F0F1FB022034
:1018E000009001208DF8040000208DF806000320F0
:1018F0008DF8050001208DF807006946284802F0A0
:10190000DFFB4FF48050009001208DF80400002090
:101910008DF8060003208DF8050001208DF80700E2
:1019200069461D4802F0CCFB8020009001208DF814
:10193000040000208DF8060003208DF8050001202A
:101940008DF807006946154802F0BAFB02211448D9
:1019500002F034FC1CBD012080F3138800BF00BFDF
:10196000BFF34F8F0A48F038006800F4E0600D497B
:101970000843001D0649F0390860BFF34F8F00BFD0
:1019800000BFFEE7704710B502F063FC10BD000019
:10199000FCED00E0001000E0000402400000024006
:1019A000000802400000FA05704710B50446522CAA
:1019B00004D204F11001C8B206F04EFF10BD10B5FC
:1019C00007F0CEFA10BD10B50446522C04D204F133
:1019D0001001C8B206F0E4FF10BD70B504460D4614
:1019E0000026522C10D200BF00BF07F0BDFA0646F9
:1019F00000BF00BFF44840F8245000BF00BF30468D
:101A000007F0B6FA00BF00BF70BD70B504460D46C2
:101A10000026522C13D200BF00BF07F0A5FA0646DD
:101A200000BF00BF04F11001C8B2294607F0AEF8AC
:101A300000BF00BF304607F09BFA00BF00BF70BD7B
:101A4000704710B5002404E0E0492046FFF7C5FFC9
:101A5000641C522CF8D310BD70B50446002600BF9C
:101A600000BF07F081FA064600BF00BF07F0AAFCDE
:101A700000BF00BF304607F07BFA00BF00BF522C0A
:101A800004D2D14850F8245005B1A84707F0ABFC68
:101A900070BD10B50020FFF7DFFF10BD10B50120AD
:101AA000FFF7DAFF10BD10B50220FFF7D5FF10BD1C
:101AB00010B50320FFF7D0FF10BD10B50420FFF7CD
:101AC000CBFF10BD10B50520FFF7C6FF10BD10B548
:101AD0000620FFF7C1FF10BD10B50720FFF7BCFFC0
:101AE00010BD10B50820FFF7B7FF10BD10B50920D5
:101AF000FFF7B2FF10BD10B50A20FFF7ADFF10BD14
:101B000010B50B20FFF7A8FF10BD10B50C20FFF794
:101B1000A3FF10BD10B50D20FFF79EFF10BD10B53F
:101B20000E20FFF799FF10BD10B50F20FFF794FFAF
:101B300010BD10B51020FFF78FFF10BD10B511209C
:101B4000FFF78AFF10BD10B51220FFF785FF10BD0B
:101B500010B51320FFF780FF10BD10B51420FFF75C
:101B60007BFF10BD10B51520FFF776FF10BD10B537
:101B70001620FFF771FF10BD10B51720FFF76CFF9F
:101B800010BD10B51820FFF767FF10BD10B5192064
:101B9000FFF762FF10BD10B51A20FFF75DFF10BD03
:101BA00010B51B20FFF758FF10BD10B51C20FFF724
:101BB00053FF10BD10B51D20FFF74EFF10BD10B52F
:101BC0001E20FFF749FF10BD10B51F20FFF744FF8F
:101BD00010BD10B52020FFF73FFF10BD10B521202C
:101BE000FFF73AFF10BD10B52220FFF735FF10BDFB
:101BF00010B52320FFF730FF10BD10B52420FFF7EC
:101C00002BFF10BD10B52520FFF726FF10BD10B526
:101C10002620FFF721FF10BD10B52720FFF71CFF7E
:101C200010BD10B52820FFF717FF10BD10B52920F3
:101C3000FFF712FF10BD10B52A20FFF70DFF10BDF2
:101C400010B52B20FFF708FF10BD10B52C20FFF7B3
:101C500003FF10BD10B52D20FFF7FEFE10BD10B51F
:101C60002E20FFF7F9FE10BD10B52F20FFF7F4FE70
:101C700010BD10B53020FFF7EFFE10BD10B53120BC
:101C8000FFF7EAFE10BD10B53220FFF7E5FE10BDEC
:101C900010B53320FFF7E0FE10BD10B53420FFF77C
:101CA000DBFE10BD10B53520FFF7D6FE10BD10B518
:101CB0003620FFF7D1FE10BD10B53720FFF7CCFE60
:101CC00010BD10B53820FFF7C7FE10BD10B5392084
:101CD000FFF7C2FE10BD10B53A20FFF7BDFE10BDE4
:101CE00010B53B20FFF7B8FE10BD10B53C20FFF744
:101CF000B3FE10BD10B53D20FFF7AEFE10BD10B510
:101D00003E20FFF7A9FE10BD10B53F20FFF7A4FE4F
:101D100010BD10B54020FFF79FFE10BD10B541204B
:101D2000FFF79AFE10BD10B54220FFF795FE10BDDB
:101D300010B54320FFF790FE10BD10B54420FFF70B
:101D40008BFE10BD10B54520FFF786FE10BD10B507
:101D50004620FFF781FE10BD10B54720FFF77CFE3F
:101D600010BD10B54820FFF777FE10BD10B5492013
:101D7000FFF772FE10BD10B54A20FFF76DFE10BDD3
:101D800010B54B20FFF768FE10BD10B54C20FFF7D3
:101D900063FE10BD10B54D20FFF75EFE10BD10B5FF
:101DA0004E20FFF759FE10BD10B54F20FFF754FE2F
:101DB00010BD10B55020FFF74FFE10BD10B55120DB
:101DC000FFF74AFE10BD0000383D0020411A000810
:101DD00010B500244FF40041C04802F0EFF9902004
:101DE00000F0B9FD002000F0B6FD002000F0B3FDCA
:101DF000002000F0B0FDFF2000F0ADFD44EA00241B
:101E0000FF2000F0A8FD04434FF40041B34802F066
:101E1000D3F9204610BD10B500244FF40041AF485F
:101E200002F0CAF900F070FDFF2000F094FDFFF70A
:101E3000CFFF04462246AAA1AD4800F08DFB10BD9D
:101E400010B500244FF40041A44802F0B7F9052072
:101E500000F081FDFF2000F07EFD04464FF40041BC
:101E60009E4802F0A9F9204610BD10B54FF400417C
:101E70009A4802F0A3F9062000F06DFD4FF40041EE
:101E8000964802F099F910BD10B54FF400419348FF
:101E900002F094F9042000F05EFD4FF400418F48F9
:101EA00002F08AF910BD10B500BFFFF7C9FF00F0BE
:101EB00001000028F9D110BD2DE9F04106460C467D
:101EC000174600254FF40041844802F077F90320BB
:101ED00000F041FDC4F3074000F03DFDC4F30720CE
:101EE00000F039FDE0B200F036FD00BF05E0FF2054
:101EF00000F031FD7055681C85B2BD42F7DB4FF430
:101F00000041764802F058F9BDE8F0812DE9F04132
:101F100006460C4617460025FFF7A7FF4FF4004181
:101F20006E4802F04BF9022000F015FDC4F30740A3
:101F300000F011FDC4F3072000F00DFDE0B200F049
:101F40000AFD00BF04E0705D00F005FD681C85B26D
:101F5000BD42F8DB4FF40041604802F02DF9FFF775
:101F6000A2FFBDE8F0812DE9F04107460E46144678
:101F70000025F0B2C0F58075AC4200DC254612E0C9
:101F80002A4631463846FFF7C1FFAC4200D10BE08C
:101F90002F442E44601B84B2B4F5807F02DD4FF4E1
:101FA000807500E02546EBE700BFBDE8F08110B585
:101FB00004462403FFF759FFFFF775FF4FF4004174
:101FC000464802F0FBF8202000F0C5FCC4F30740AF
:101FD00000F0C1FCC4F3072000F0BDFCE0B200F04B
:101FE000BAFC4FF400413D4802F0E6F8FFF75BFF12
:101FF00010BD2DE9F05F81460F4616464FF00008F0
:10200000C24600240025DFF8ECB04FEA1738C7F3CA
:102010000B0ACAF58054A64200DC344644E04FEA7D
:1020200008314FF480525846FFF746FF002508E07C
:102030000AEB05001BF80000FF2800D003E0681C35
:1020400085B2A542F4DB00BFA54216DA4046FFF791
:10205000AEFF002507E019F8050005EB0A010BF8B3
:102060000100681C85B2A542F5DB4FEA08314FF448
:1020700080525846FFF777FF04E02246394648462B
:10208000FFF771FFA64200D10FE008F101084FF001
:10209000000AA1442744301B86B2B6F5805F02DDFA
:1020A0004FF4805400E03446B9E700BFBDE8F09F2C
:1020B00010B5FFF7DAFEFFF7F6FE4FF400410748D0
:1020C00002F07CF8C72000F046FC4FF400410348C2
:1020D00002F072F8FFF7E7FE10BD000000000240BA
:1020E0007732357178784944203D2025640D000011
:1020F00000480040803E002010B5002407F062F93F
:1021000040F22551FC4804F0A2FBF8B140F2255101
:10211000F94804F0D3FBF84804F0D7FAC4B2F74802
:10212000007898B9F64800680088B0F5007F0EDAAC
:10213000F44800680188F34800680088401CF14AB0
:1021400012681080EF480068801C445405E040F29B
:102150000221EC48006819F0B0F940F22771E64816
:1021600004F075FB28B1002240F22771E24804F028
:1021700033FB07F038F910BD2DE9FF4107460C4647
:1021800015461E460097ADF80440ADF80660ADF860
:1021900008500020ADF80C000C20ADF80A0069468C
:1021A000D54804F0DBF9012240F22551D24804F071
:1021B00013FB0121D04804F059FAAFF2C3012520E6
:1021C000FFF70BFCBDE8FF8110B5002407F0FAF81B
:1021D00040F22551CC4804F03AFB18B340F22551A7
:1021E000C94804F06BFB0021072000F06EFBC748D4
:1021F0000078B8B9C44804F068FAC4B2C0480068AE
:102200000088B0F5007F0EDAC14800680188C04838
:1022100000680088401CBE4A12681080BC480068F4
:10222000801C445405E040F20221B948006819F0CE
:1022300044F940F22771B44804F009FB28B10022A8
:1022400040F22771B04804F0C7FA07F0CCF810BD8F
:102250001FB5044600940020ADF80400ADF8060058
:10226000ADF80800ADF80C000C20ADF80A00694686
:10227000A54804F073F9012240F22551A24804F068
:10228000ABFA0121A04804F0F1F9AFF2C301262016
:10229000FFF7A3FB1FBD1CB500249E48007840BB80
:1022A0009D4804F012FAC4B29C4800680088B0F55A
:1022B000007F1FDA99480068018898480068008804
:1022C000401C964A1268108094480068801C445450
:1022D000162C15D101A800909048006802880023B0
:1022E0008E480168891C8E4809F0D5FD0120894976
:1022F000087005E040F202218848006819F0DDF816
:102300001CBD1CB5002400200090019007F05AF875
:1023100040F22551804804F09AFA30B140F225513C
:102320007D4804F0CBFAFFF7B6FF40F227717A48F8
:1023300004F08DFA28B1002240F22771764804F0AB
:102340004BFA07F050F81CBD1FB50446009400205E
:10235000ADF80400ADF80600ADF80800ADF80C00CB
:102360000C20ADF80A0069466B4804F0F7F801222A
:1023700040F22551684804F02FFA0121664804F024
:1023800075F9AFF281012720FFF727FB1FBD1FB5AD
:10239000044600940020ADF80400ADF80600ADF846
:1023A0000800ADF80C000C20ADF80A0069465D4845
:1023B00004F0D4F8012240F225515A4804F00CFAF6
:1023C0000121584804F052F9AFF2C9013420FFF757
:1023D00004FB1FBD1CB5002400200090019006F0F6
:1023E000F1FF40F22551504804F031FA18B340F2A1
:1023F00025514D4804F062FA4B4804F066F9C4B226
:102400004A4800680088B0F5007F0EDA4748006847
:102410000188464800680088401C444A12681080C1
:1024200042480068801C445405E040F202213F48C5
:10243000006819F042F840F227713B4804F007FAAF
:1024400028B1002240F22771374804F0C5F906F0A0
:10245000CAFF1CBD1FB5044600940020ADF804005F
:10246000ADF80600ADF80800ADF80C000C20ADF892
:102470000A0069462C4804F071F8012240F2255107
:10248000294804F0A9F90121274804F0EFF8AFF238
:10249000BB013520FFF7A1FA1FBD1CB5002417486A
:1024A000007840BB144804F010F9C4B21548006825
:1024B0000088B0F5007F3DDA1248006801881148B5
:1024C00000680088401C0F4A126810800D480068A0
:1024D000801C4454162C33D101A800900948006890
:1024E0000288002307480168891C114809F0D3FCC1
:1024F00001200249087023E000100140380000204C
:10250000340000202000002000440040390000205A
:10251000240000203A00002000480040280000204D
:10252000781A0020004C004000500040300000208D
:10253000181A002040F202218F48006818F0BDFFF1
:102540001CBD10B500242821072000F0BEF910B1F1
:1025500001208A49087010BD0FB470B58AB00646D4
:1025600010A801904021304604F05BF973E00F9809
:1025700000785C281CD10F98401C0F9000786E28C2
:1025800009D072280FD10D21304604F09AF80F9827
:10259000401C0F900BE00A21304604F092F80F988F
:1025A000401C0F9003E00F98401C0F9000BF4BE0C1
:1025B0000F980078252840D10F98401C0F90007884
:1025C000642818D0732833D1019810C801900BE00B
:1025D0002178304604F075F800BF4021304604F001
:1025E00020F90028F9D0641C20780028F0D10F9839
:1025F000401C0F9020E0019820C801902A4660A15D
:1026000002A819F03DF802AC0BE02178304604F046
:1026100058F800BF4021304604F003F90028F9D0F3
:10262000641C20780028F0D10F98401C0F9003E024
:102630000F98401C0F9000BF06E00F9810F8011B88
:102640000F90304604F03DF800BF4021304604F0C2
:10265000E8F80028F9D00F980078002887D10AB050
:1026600070BC5DF814FB0FB4F0B589B007460D4699
:1026700011A800904021384604F0D3F873E0109878
:1026800000785C281CD11098401C109000786E28AF
:1026900009D072280FD10D21384604F012F8109895
:1026A000401C10900BE00A21384604F00AF81098FC
:1026B000401C109003E01098401C109000BF4BE0AD
:1026C00010980078252840D11098401C1090007870
:1026D000642818D0732833D1009810C800900BE0FC
:1026E0002178384603F0EDFF00BF4021384604F062
:1026F00098F80028F9D0641C20780028F0D11098B0
:10270000401C109020E0009840C8009032461CA168
:1027100001A818F0B5FF01AC0BE02178384603F0B2
:10272000D0FF00BF4021384604F07BF80028F9D0E4
:10273000641C20780028F0D11098401C109003E011
:102740001098401C109000BF06E0109810F8011B74
:102750001090384603F0B5FF00BF4021384604F022
:1027600060F80028F9D0281EA5F101018DB286D1AC
:1027700009B0F0BC5DF814FB2000002039000020F7
:102780002564000010B500240121574803F0ABFD7B
:1027900001284AD10121544803F0B6FD534800688E
:1027A00020B152480068401E50490860002408E0EB
:1027B0004F4850F82400401C4D4941F82400601C4B
:1027C00084B20B2CF4DB4B480068401C494908607C
:1027D00008460068B0F57A7F22D30020086046489A
:1027E0000078401C44490870084600783B2817DDF3
:1027F0000020087041480078401C40490870084695
:1028000000783B280CDD002008703D480078401C13
:102810003B49087008460078172801DD0020087041
:1028200038480068401C3749086010BD3EB5054671
:102830000C462D4802F0F2FF0020ADF80200ADF882
:1028400008000195ADF800406946274803F093F869
:102850000121254803F044FD0021234803F0D4F86A
:1028600001221146204803F027FD01211E4803F0F4
:102870000BF9AFF2EF011D20FFF7AFF83EBD214885
:10288000006870471D48007870471B480078704703
:102890000CB51B4909788DF80010184909788DF896
:1028A0000110154909788DF8021012490968019143
:1028B000DDE90012C0E900120CBD0C49086000BF40
:1028C0000A4909680029FBD1704710B5024600206B
:1028D000074B53F822308B4204D30023044C44F8B6
:1028E000223000E0012010BD00040040480000201C
:1028F000845000205000002054000020550000208B
:10290000560000204C00002000B585B00020ADF836
:1029100000004FF48270ADF802000020ADF8040012
:102920000220ADF806000120ADF808004002ADF825
:102930000A000020ADF80C00ADF80E000720ADF83D
:1029400010006946104802F075FD01210E4802F0A2
:1029500054FE05B000BD10B5044600BF02210A4870
:1029600002F0DBFE0028F9D02146074802F09EFE67
:1029700000BF0121044802F0D0FE0028F9D002482F
:1029800002F091FEC0B210BD0030014010B54FF40E
:10299000806002F0D6FC012802D1800202F0E3FC44
:1029A0004FF4800001F015FB10BD10B54FF480709E
:1029B00002F0C7FC012802D1000202F0D4FC4FF45F
:1029C000003001F006FB10BDF8B504460D46174671
:1029D0001E468DF803408DF801508DF802708DF879
:1029E00000606946012002F03EF9F8BDF8B50446E2
:1029F0000D4617461E468DF800408DF801508DF8A3
:102A000002708DF803606946012002F0A5F8F8BD58
:102A1000014600BF080900EB8000420001F00F00F2
:102A20001044C0B2704710B586B00446A0786178F3
:102A300022782379CDE90032CDE902106379E2886A
:102A400073A17A48FFF788FDA0798DF813006079AB
:102A50008DF8110020798DF81200E0788DF81000C3
:102A60002078FFF7D5FF8DF814006078FFF7D0FFCE
:102A70008DF81500A078FFF7CBFF8DF81600A07831
:102A8000617822782379CDE90032CDE902106379AB
:102A9000E28867A16548FFF75FFD9DF816209DF865
:102AA00015109DF814000023FFF7A0FF9DF81220D9
:102AB0009DF811109DF813000323FFF785FF06B062
:102AC00010BD00B585B01120ADF8060002208DF8CC
:102AD000050017208DF8040002208DF80000042066
:102AE0008DF8010000208DF80200012001F0D3FBD9
:102AF000012001F09DFC00BF412001F052FC0028A4
:102B0000FAD04FF4807001F087FD012001F09FFDA5
:102B100001F0E6FE002002F0B2FB4AF2A551884225
:102B200010D07F200390FF2004900020029002A884
:102B300001F092FF6846FFF776FF4AF2A5510020A8
:102B400002F090FBAFF29D112920FEF746FFAFF295
:102B5000C3115120FEF741FFAFF2CF110320FEF762
:102B60003CFF05B000BD10B586B0044605A90120A4
:102B700002F054F804A9012002F0DBF89DF81300DC
:102B8000E0809DF8110060719DF8120020719DF8A1
:102B90001000FFF73DFFE0709DF81400FFF738FFCD
:102BA00020709DF81500FFF733FF60709DF8160048
:102BB000FFF72EFFA070A078617822782379CDE905
:102BC0000032CDE902106379E28820A11748FFF7AF
:102BD000C3FC06B010BD10B54FF4006002F0B1FBAD
:102BE000012802D1C00202F0BEFB4FF4001001F038
:102BF000F0F910BD0146002204E0501CC2B2A1F160
:102C00000A00C1B20A29F8DA100741EA10607047D9
:102C100074696D65323D25642D25642D256420255C
:102C2000643A25643A25640D000000000048004025
:102C300074696D65333D25642D25642D256420253B
:102C4000643A25643A25640D0000000064617465EF
:102C5000313D25642D25642D25642025643A2564A5
:102C60003A25640D0000000010B5B0B000F0B0F9D6
:102C700000F021FF00BF00F025FF0128FBD001A8D4
:102C800000F0B1F901200190002008904FF400708D
:102C90000B9000200C900F901290149015901690AD
:102CA00021904FF000702290001124900020249079
:102CB000259026902690279004202990C0052A90E0
:102CC00040122B9080012C9040122D9040002F90AC
:102CD000002101A800F041FAC4B2012C03D1012166
:102CE000AB4800F006FF204630B010BD10B501E043
:102CF0000CF07BFFA748006800F0B9FE0028F7D170
:102D0000402000F00DFF4FF4803000F009FF10BDAF
:102D100010B50024012002F06AFD4FF400519E48D6
:102D200001F04CFA1420FFF7C8FD4FF400519A4807
:102D300001F042FAAFF24B013D20FEF74EFEFFF7E5
:102D400093FF04460CB9012010BD0020FCE710B52C
:102D500000241F21002000F0CFF9C0F38204224696
:102D60008EA19148FFF7F8FB204610BD1EB500214B
:102D70000022009201920292864A1268126802F0C2
:102D8000004282B100220092884A526902F0800219
:102D900022B18022854B5A6100229A609DE81C0076
:102DA00080E81C001EBD7B4A1268126802F40042D3
:102DB000B2B9784A1268126802F4807282B1754A18
:102DC0001268126802F4007252B1724A12681268F4
:102DD000C2F30D42111F6F4A12689268019200E01F
:102DE000002100916B4A126802926A4A1268D26806
:102DF000684B1A609DE81C0080E81C0000BFD1E70A
:102E000001466B480068006800F0004008B10020EF
:102E10007047C1F30C00664A12685060644800684D
:102E2000006840F04050624A1268106060480068D4
:102E3000006840F000405E4A126810605B484069DC
:102E400000F0040020B10420584A50610020506076
:102E500057480068C068564A10600120D8E75448B7
:102E600000688068704707B54FF00040029908601D
:102E70004E48406900F0800020B180204B494861F5
:102E8000002088600EBD1EB5002100220092019234
:102E90000292404A1268126802F0004282B1002297
:102EA0000092424A526902F0800222B180223F4BD6
:102EB0005A6100229A609DE81C0080E81C001EBD3B
:102EC000344A1268126802F40042B2B9314A1268F8
:102ED000126802F4807282B12E4A1268126802F4FB
:102EE000007252B12B4A12681268C2F30D42111FD0
:102EF000284A12689268019200E000210091254A58
:102F000012680292234A1268D268224B1A609DE826
:102F10001C0080E81C0000BFD1E70146244800687F
:102F2000006800F0004008B100207047C1F30C00B9
:102F30001F4A126850601E480068006840F0405008
:102F40001B4A126810601A480068006840F0004090
:102F5000174A126810601548406900F0040020B15B
:102F60000420124A50610020506011480068C06877
:102F70000F4A10600120D8E770B504460D460C4991
:102F800009682A468868214618F07EFA70BD00005C
:102F9000400001005C000020000C02407370656579
:102FA000643D25640D000000004800400090024090
:102FB0005800002001B581B00020009001980090D9
:102FC00002E00098401E009000980028F9D10CBD46
:102FD00010B50121480601F09AFB00214FF0007066
:102FE00001F095FB10BD012101600021416081606D
:102FF000C16001614FF48041416100218161C16183
:103000004FF400610162002141628162C16201638B
:1030100041638163C1634021016420214164002137
:103020008164C164016541658165C1650166802176
:10303000416600218166C166016741678167C1679A
:103040004FF08061C0F880104910C0F88410002152
:10305000C0F888104FF40011C0F88C100021C0F89F
:103060009010C0F89410C0F89810C0F89C10C0F8E8
:10307000A0104FF00071C0F8A4104912C0F8A810B9
:103080008901C0F8AC104912C0F8B0100021C0F896
:10309000B410C0F8B810704738B503460C4600218C
:1030A00000200090F948016901F01C014FF47840BC
:1030B00000EAC32001434FF4F86000EA84100143A2
:1030C00041F0020141F00101F0484261016100BF9D
:1030D0000098401C0090ED48016901F0010018B112
:1030E000EB4D0098A842F3D3E94D0098A84201D1D6
:1030F000002038BD0120FCE718B502460B46002130
:1031000000200090E148016901F01C014FF4784073
:1031100000EAC22001434FF4F86000EA8310014343
:1031200021F0020141F00101D848016100BF00987F
:10313000401C0090D548016901F0010018B1D44C41
:103140000098A042F3D3D24C0098A04201D10020B5
:1031500018BDCE48406980B2FAE72DE9F04186B04B
:1031600004460F464FF00008002500200590C94E88
:103170000090C648056925F01C0501A801F0DDF99D
:10318000029EC548864205D3C448864202D245F015
:10319000080511E0C148864205D3BE48864202D2E6
:1031A00045F00C0508E0BB48864203D3BC48864284
:1031B00000D201E045F00405B44805614FF4004237
:1031C00000213846FFF768FF18B9002006B0BDE8B7
:1031D000F081B448FFF7EEFE206800284ED000BF13
:1031E0000098401C009001213846FFF785FF00F051
:1031F000040018B9A64900988842F1D3A449009860
:10320000884201D10020E1E7002000904FF4805275
:1032100000213846FFF740FF08B90020D6E700BF7D
:103220000098401C009001213846FFF765FF00F030
:10323000200018B9964900988842F1D39449009823
:10324000884201D10020C1E70020009010213846BB
:10325000FFF752FF804608F0040018B14FF40060F9
:10326000206201E00020206208F0020010B100207E
:10327000606116E04FF48040606112E0206AC0F3A4
:10328000CF006169C1F34F0140EA010200213846D5
:10329000FFF702FF08B9002098E76FF07F40FFF7C3
:1032A00089FE7A48056880480540D4E90101084351
:1032B000E16808432169084361690843A16908433B
:1032C000E1690843216A0843616A0843A16A084327
:1032D000E16A0843216B0843616B084305436B486F
:1032E0000560D4E90E010843216C0843616C084372
:1032F000A16C0843E16C0843216D0843616D0843EC
:1033000062494860A06D8860E06DC86008468569C4
:103310004FF641700540B4F86010606E40EA01401D
:10332000A16E0843E16E0843216F0843616F0843B3
:10333000054356488561D4E91E0108435349C861D5
:103340005A4885695A480540D4E920010843D4F811
:1033500088100843D4F88C100843D4F89010084320
:10336000D4F894100843D4F898100843D4F89C106B
:103370000843D4F8A010084305434C488561D4E9BC
:1033800029010843D4F8AC100843D4F8B01008431E
:10339000D4F8B41040EA8100D4F8B810084340F4DF
:1033A0000000424908600846006840F0800008605C
:1033B00001200BE730B13D49896941F002013B4AE8
:1033C000916105E03949896921F00201374A91612B
:1033D000704730B13549896941F40051334A9161F0
:1033E00005E03249896921F40051304A9161704702
:1033F00030B12649096841F00401244A116005E012
:103400002249096821F00401204A116070472748C9
:10341000806940F4801025498861704730B11B49AC
:10342000096841F00801194A116005E01749096867
:1034300021F00801154A1160704700B50120FFF71F
:10344000EDFFFFF7E4FF0120FFF7D2FF0120FFF7B8
:10345000C0FF0120FFF7AEFF00BD00200B498969C6
:1034600001F0010109B1012000E000207047074888
:10347000806940F00100054988617047D0B1034977
:10348000896941F00101014A916119E0008002401F
:10349000FFFF040000879303002D3101C00E1602C8
:1034A00000E1F505FFFF0F000F8120FF00900240B3
:1034B000233FDEF8FE49896921F00101FC4A916150
:1034C000704701460020FA4A926B0A400AB1012077
:1034D00000E00020704701460020F54A926B0A4048
:1034E0000AB1012000E00020704729B1F04AD26BF8
:1034F0008243EF4BDA6304E0ED4AD26B0243EC4BBC
:10350000DA63704710B50B794C7943EA0422E84B33
:1035100003441A64CB781B068C7843EA04434C7846
:1035200043EA04230C7843EA0402E14B03445A645F
:1035300010BD0246DE4B1344186C030A4B71087130
:10354000DB4B1344586C030ECB70030C8B70030AD7
:103550004B700870704741B1D54A0244126C42F07A
:103560000042D34B03441A6407E0D14A0244126C70
:1035700022F00042CE4B03441A647047082908D059
:10358000CB4A0244126C42F08042C94B03441A6495
:1035900007E0C74A0244126C22F08042C44B034445
:1035A0001A647047C24A0244126C22F07C52C04B2B
:1035B00003441A64BE4A0244126C0A43BC4B0344DF
:1035C0001A6470471EB500210022009201920292F7
:1035D000B84A12681268C2F30D42111F0091B64A30
:1035E00012689268012A05D9B34A12681268926873
:1035F000019203E0AF4A126892680192AD4A1268E4
:103600000292AC4A1268D268AA4B1A609DE81C006C
:1036100080E81C001EBD0FB50021019102910391AD
:1036200000916FE00099491C0091A249096809685E
:1036300001F40071A1B19F490968096801F4807122
:1036400071B99C4909689C4A1268116001219A4A23
:103650001268916097490968C968964A116051E0FB
:1036600094490968096801F4807191B99149096820
:10367000096801F4007161B98F4909688968491CBA
:103680008D4A126891608B490968C968894A11603E
:1036900038E088490968884A126851608649096893
:1036A0008968491C844A126891608349096889685D
:1036B000012904D17F4909687F4A126811607D4958
:1036C00009680968C1F30D41091F01917A49096828
:1036D0008968012905D978490968096889680291CA
:1036E00003E0744909688968029172490968039185
:1036F00070490968C9686F4A116001A90EC980E85C
:103700000E000FBD6B490968096801F0004111B94D
:103710000099052986D301A90EC980E80E0000BFD3
:10372000EFE770B5024600230025002463480068D7
:10373000006800F0004008B1002070BD5F480168DB
:1037400040F2F450824208DD92FBF0F392FBF0F677
:1037500000FB162010B15B1C00E00123012B1AD1E5
:1037600056480068006840F04050544E366830605B
:10377000C2F30C00514E3668706050480068006813
:1037800040F000404D4E366830604C480068C068DC
:103790004A4E306028E0002422E03CB947480068E7
:1037A000006840F08050454E3668306040F2F4507A
:1037B0004860581EA0420DD1086840F000500860D3
:1037C000581EC0EBC01000EB4000A2EB8005C5F313
:1037D0000C004860086840F000400860C968641C3C
:1037E0009C42DAD3354801603548406900F0040056
:1037F00020B10420324E70610020706001209CE7EF
:1038000070B50C46134600212A4D286000BF18E011
:1038100000EB41124FF00045156044F2F45555603D
:10382000C1EBC11505EB450504EB850595605D1EF3
:103830008D4204D900EB41152035D56000E0D06001
:10384000491C9942E4D31E4DE8601E4D1A4E356066
:1038500070BD18480068006800F0004098B915482D
:103860000068006800F4807068B11248006812496E
:1038700009684860104800688068401C0E49096863
:103880008860012070470B480068006800F0004025
:1038900058BB08480068006800F4007028B3054869
:1038A0000068006800F48070F8B9024800680BE016
:1038B000008002405C0000206000002058000020D2
:1038C00000900240788D0020FB49096808600020C4
:1038D000F949096848600120F74909688860F74894
:1038E0000068C068F54908601DE0F4480068006899
:1038F00000F00040B8B9F1480068006800F40070BA
:1039000088B9EE480068006800F4807058B9EA4849
:1039100000688068401CE84909688860E7480068DA
:10392000C068E64908600020ACE730B50C46134695
:103930000021E34D286000BF15E000EB41124FF479
:1039400080151560C1EBC11505EB450504EB850538
:1039500095605D1E8D4204D900EB41152035D56080
:1039600000E0D060491C9942E7D3D64D286130BDB4
:103970000246002013680B400BB1012000E000203C
:10398000704701460868C0F3C3007047016841F002
:1039900000410160704721B1026842F0804202603C
:1039A00003E0026822F080420260704702680A4326
:1039B0000260704702680A430260704721B10268E2
:1039C00022F00062026003E0026842F000620260DE
:1039D000704721B1026842F48012026003E002687D
:1039E00022F480120260704721B1026822F08062E6
:1039F000026003E0026842F080620260704710B526
:103A000041EA024443682343436010BD024600205C
:103A100013680B400BB1012000E000207047024604
:103A2000002013690B400BB1012000E0002070471B
:103A3000016841F000410160704701460868C0F329
:103A40000D40704721B1426822F00042426003E01D
:103A5000426842F0004242607047024619B1506825
:103A6000C0F30C4070479088C0F30C00FAE700B533
:103A700002460023106800F0004058B9106800F4B6
:103A8000004038B9106800F4807018B11046FFF794
:103A9000D4FF0346184600BD30B18A49096841F099
:103AA0008001884A116005E08649096821F080019B
:103AB000844A116070478348006840F001008149E2
:103AC0000860704700207F49096801F0010109B1D1
:103AD000012000E00020704701460020794A526929
:103AE0000A400AB1012000E0002070477549486192
:103AF000704729B1734AD2690243724BDA6104E01C
:103B0000704AD26982436F4BDA61704701460020E8
:103B10006C4A52690A400AB1012000E00020704757
:103B20006849486170476748406900F00100704784
:103B30006448406900F0400070470020614989698D
:103B400001F4801109B1012000E000207047014616
:103B500000205C4A126A0A400AB1012000E00020FD
:103B600070475848006AC0F34A4070475548006A99
:103B700080B270475348806C70475248C06C7047A1
:103B80005048006D70474F48406D704700204D49C8
:103B90004860704700204B49886070474949486237
:103BA000704770B506460D46002400213046FFF7E9
:103BB000A3FA044615B144F4804402E04BF6FF70CA
:103BC0000440224600213046FFF766FA08B1012082
:103BD00070BD0020FCE73C48C06A40F000403A4914
:103BE000C86270470146002000BF04E051F8202061
:103BF000354B9A62401C0828F8D3704730B13249DF
:103C0000C96A41F40071304AD16205E02E49C96A9F
:103C100021F400712C4AD1627047014600202A4AE3
:103C2000D26A0A400AB1012000E00020704730B19A
:103C30002549C96A41F00401234AD16205E02249BD
:103C4000C96A21F00401204AD162704730B11E498F
:103C5000C96A41F002011C4AD16205E01A49C96AE9
:103C600021F00201184AD162704730B11649C96A81
:103C700041F00101144AD16205E01349C96A21F0FB
:103C80000101114AD16270471048006840F03000CD
:103C90000D49C1F8000170470C48006820F0200071
:103CA0000949C1F800010846D0F8000140F01000B1
:103CB000C1F8000170470000600000205C00002097
:103CC0005800002000900240008002400081024025
:103CD00038B14349096841F00801424AC2F800116D
:103CE00006E03F49096821F008013E4AC2F8001188
:103CF000704738B13A49096841F00401394AC2F8BD
:103D0000001106E03649096821F00401354AC2F87D
:103D10000011704738B13249096821F00201314A77
:103D2000C2F8001106E02E49096841F002012D4A4F
:103D3000C2F8001170472A48006840F00100294984
:103D4000C1F80001704700F0805292B120F080501D
:103D500039B1234A0C3212688243224BC3F80C213A
:103D600017E01F4A0C32126802431E4BC3F80C21A5
:103D70000FE039B11A4A103212688243194BC3F866
:103D8000102106E0164A103212680243154BC3F8A0
:103D9000102170470146002001F080526AB1104A9C
:103DA000121D12680A4032B10D4A0C3212680A40E4
:103DB0000AB901200EE000200CE0094A083212681E
:103DC0000A4032B1064A0C3212680A400AB9012090
:103DD00000E0002070470146024808587047000084
:103DE000008102400080024032490143324A1160A2
:103DF000704770B5002100230F22C4781CB32E4CED
:103E0000246804F4E064C4F5E064C4F30721C1F15C
:103E10000404E3B20A4144789C40E1B2847814403F
:103E200021430C07210E254C05786155047804F0D8
:103E30001F050124AC4005786D11AD0005F1E025AA
:103E4000C5F8004109E0047804F01F050124AC40E6
:103E50001B4D0678761145F8264070BD194A0A4078
:103E60000243154B1B1F1A60704739B1124A121DCD
:103E700012680243104B1B1D1A6006E00E4A121D09
:103E8000126882430C4B1B1D1A607047042808D12E
:103E90004FF0E021096941F004014FF0E022116187
:103EA00007E04FF0E021096921F004014FF0E02222
:103EB000116170470000FA050CED00E000E400E03D
:103EC00080E100E080FFFF1F002044490860091DD9
:103ED0000860091D0860091D086041483F49143108
:103EE0000860704700213D498279002A3AD00A468D
:103EF000126803689A430B461A600A1D1268036829
:103F00009A430B1D1A60027911440A6803681A4328
:103F10000A60324A0832126803689A432F4B08330A
:103F20001A601A1D126803689A432C4B0C331A60EE
:103F30004279102A0ED11A1F126803681A43274BC0
:103F400008331A601A1D126803681A43234B0C3396
:103F50001A600DE02149427911440A6803681A4346
:103F60000A6005E0027911440A6803689A430A600E
:103F700070470021016001710C21417100218171A4
:103F800070471649103109680143144A1032116014
:103F9000704701460020114A143212680A400AB1E3
:103FA000012000E0002070470C4914310860704780
:103FB000014600200022094B1B6803EA0102074B5F
:103FC00014331B680B4013B10AB1012000E000203C
:103FD000704702491431086070470000003C0140FE
:103FE000FFFF7F0010B504468C48844208D10121B0
:103FF000084600F08CFB0021012000F088FB5EE009
:104000008748844208D10121022000F080FB002172
:10401000022000F07CFB52E08248844208D101215A
:10402000042000F074FB0021042000F070FB46E047
:104030007D48844208D10121082000F068FB00215E
:10404000082000F064FB3AE07848844208D101215E
:10405000102000F05CFB0021102000F058FB2EE047
:104060007348844208D10121202000F050FB002138
:10407000202000F04CFB22E06E48844208D1012150
:10408000402000F044FB0021402000F040FB16E0FF
:104090006948844208D10121802000F038FB0021CA
:1040A000802000F034FB0AE06448844207D10121FB
:1040B000801500F02CFB0021A01500F028FB10BD9E
:1040C000F0B50A4600210023002400BF3DE0012591
:1040D00005FA01F3156805EA03049C4234D105682A
:1040E0004F000326BE40B543056015794E00B5402C
:1040F0000668354305601579012D02D01579022D2A
:1041000016D185684F000326BE40B54385605579BA
:104110004E00B540866835438560456801268E406F
:10412000B5434560456896798E40B6B235434560E3
:10413000C5684F000326BE40B543C560D5794E0023
:10414000B540C6683543C560491C1029BFD3F0BDD2
:104150004FF6FF7101600021017141718171C171E0
:10416000704708B54FF480320092009A0A430092DB
:10417000009AC261C161009AC261C2690092C269BB
:10418000009208BD0246002013690B400BB10120CC
:1041900000E0002070470146086980B2704702467F
:1041A000002053690B400BB1012000E00020704754
:1041B0000146486980B27047018370474183704768
:1041C0000AB1018300E04183704741617047426951
:1041D0004A4042617047F0B5002300244D07ED0EC0
:1041E00002FA05F3CE1000F1200555F826504E07CF
:1041F000F70E0F26BE40B543CF1000F1200646F85B
:104200002750CE1000F1200555F8265045EA03044A
:10421000CE1000F1200545F82640F0BD0000024018
:104220000004024000080240000C0240001002405E
:104230000014024000180240001C0240002002400E
:104240000E49086070470D49486070470B49886007
:1042500070474AF6AA200949086070474CF6CC40DE
:1042600006490860704701460020044AD2680A40A7
:104270000AB1012000E0002070470000003000403B
:1042800010B50121080700F088FA00214FF0805096
:1042900000F083FA10BD2D490862704701460020E6
:1042A0002B4A106820F0E00008431060704727494F
:1042B000086170472549A031086070472349A4313F
:1042C0000860704721494862704710B502460020D7
:1042D0001F4B186820F00300104318601D4B1B682B
:1042E00043F004031B4C2360012901D130BF00E0DF
:1042F00020BF184B1B6823F00403164C236010BD2D
:104300001348006840F0040011490860084600683E
:1043100040F0020008600F48006840F004000D49BA
:10432000086000BF00BF30BF704701460020084A48
:1043300052680A400AB1012000E000207047044999
:10434000096841EA8001024A1160704700000E428C
:104350000070004010ED00E0FA48006840F00100F5
:10436000F84908600020F74908310860F5480068FE
:10437000F5490840F3490860F448091D0860081F22
:10438000006820F48020091F08600020ED490C31EE
:10439000086070470021EB4A921C117011460870AA
:1043A000704710B501460022002300204A11012A5F
:1043B00002D1E44C236808E0022A03D1E14C7034B6
:1043C000236802E0DF4C7434236801F01F020124EB
:1043D00094401C400CB1012000E0002010BD38B515
:1043E000002000900024002500BF3120FFF7D9FFF6
:1043F00005460098401C00900098B0F5A06F01D0D1
:10440000002DF2D03120FFF7CCFF08B1012400E0ED
:104410000024204638BD01460020CA4A106820F01A
:10442000F80040EAC10010607047C9490860704751
:104430000021C44A703211701170012802D0042882
:104440000AD104E00121BF4A7032117005E0052154
:10445000BC4A7032117000E000BF00BF7047BD4918
:104460000860704770B5049C41EA82150126C6EBCE
:10447000530645EA0645054345EA0465B14E361D37
:10448000356070BDB24908667047820142EA017228
:10449000AC4B84331A607047AD4988667047AC49AD
:1044A000C864704702460020A64B0833186820F005
:1044B000EC6042EA01031843A24B083318607047CE
:1044C000024600209F4B0833186820F0784042EAEB
:1044D000010318439B4B08331860704701460020C6
:1044E000984A0832106820F00300084310607047B3
:1044F00094480830006800F00C0070470146002026
:10450000904A0832106820F0F000084310607047AD
:10451000014600208B4A0832106820F4E05008431E
:104520001060704701460020864A0832106820F467
:10453000604040EAC10010607047F0B500210022E1
:1045400000240225002602237E4F08373F6807F02B
:104550000C0121B1042905D0082937D105E07E4F8F
:10456000076036E07D4F076033E0764F3F1D3F68C0
:10457000C7F38056734F3F1D3F6807F03F036EB18E
:10458000764FB7FBF3F7DFF8BCC10CF1040CDCF895
:1045900000C0CCF3881C07FB0CF40CE06E4FB7FB9B
:1045A000F3F7DFF8A0C10CF1040CDCF800C0CCF389
:1045B000881C07FB0CF4634F3F1D3F68C7F301479E
:1045C0007F1C7D00B4FBF5F7076002E0624F0760D7
:1045D00000BF00BF5B4F08373F6807F0F0010909D3
:1045E0005F4F7A5C0768D7404760564F08373F688F
:1045F00007F4E051890A5A4F7A5C4768D7408760D0
:10460000504F08373F6807F46041490B544F7A5CBC
:104610004768D740C760F0BD002100F44072B2F592
:10462000407F0AD1474A0832116821F4F8114D4AF7
:1046300002401143434A08321160424A7032126804
:10464000C0F30B031A433F4B70331A607047414964
:104650004439086070473F49403908607047424913
:104660000860704739B1374A303212680243354B1F
:1046700030331A6006E0334A303212688243314BDD
:1046800030331A60704739B12E4A3432126802430F
:104690002C4B34331A6006E02A4A343212688243C3
:1046A000284B34331A60704739B1264A38321268C1
:1046B0000243244B38331A6006E0224A383212682B
:1046C0008243204B38331A60704739B11D4A40325B
:1046D000126802431B4B40331A6006E0194A40320D
:1046E00012688243174B40331A60704739B1154A3C
:1046F000443212680243134B44331A6006E0114AF5
:104700004432126882430F4B44331A60704739B108
:104710000C4A1032126802430A4B10331A6006E04A
:10472000084A103212688243064B10331A607047F1
:10473000E1B1044A143212680243024B14331A6086
:1047400019E0000000380240FFFFF6FE10300024A0
:1047500000004742800E47420024F40040787D016B
:1047600068000020FFFCFF0F5C0147425B4A1268B3
:1047700082435A4B1A60704739B1584A121D126869
:104780000243564B1B1D1A6006E0544A121D126864
:104790008243524B1B1D1A60704739B14F4A0C328D
:1047A000126802434D4B0C331A6006E04B4A0C3240
:1047B00012688243494B0C331A60704739B1474A3B
:1047C000103212680243454B10331A6006E0434A28
:1047D000103212688243414B10331A60704739B16E
:1047E0003E4A3C32126802433C4B3C331A6006E0BE
:1047F0003A4A3C3212688243384B3C331A60704765
:1048000039B1364A403212680243344B40331A60A1
:1048100006E0324A403212688243304B40331A601D
:10482000704739B12D4A4432126802432B4B44334E
:104830001A6006E0294A443212688243274B443307
:104840001A60704739B1254A4C3212680243234B33
:104850004C331A6006E0214A4C32126882431F4BE7
:104860004C331A60704739B11C4A50321268024307
:104870001A4B50331A6006E0184A503212688243CD
:10488000164B50331A60704739B1144AD21F127850
:104890000243124BDB1F1A7006E0104AD21F127837
:1048A00082430E4BDB1F1A7070470C486030006863
:1048B00040F080700949603108607047014600206F
:1048C000064A083A12680A400AB1012000E00020B6
:1048D00070470249891F0870704700001438024071
:1048E00008B50022009200200021CA22FE4B1A6067
:1048F00053221A60FC4A183A126822F0A002FA4BBE
:10490000183B1A6000BFF84A183A126802F02001FA
:10491000009A521C0092009AB2F5004F01D0002973
:10492000F1D0F14A183A126802F020020AB10120CF
:1049300000E00020FF22EC4B1A6008BD08B5002201
:10494000009200200021E84A183A126802F0400262
:10495000E2B9421EE44B183B1A6000BFE24A183A23
:10496000126802F04001009A521C0092009AB2F5BF
:10497000803F01D00029F1D0DB4A183A126802F0DA
:1049800040020AB1012002E0002000E0012008BD41
:1049900038B50020009000240025CA20D2490860C4
:1049A00053200860FFF7CAFF00B947E00020CE4956
:1049B0002439086042F20110091D0860081D0068D2
:1049C00000F00700091D086000BFC74818380068DC
:1049D00000F004040098401C00900098B0F5803F5F
:1049E00001D0002CF1D0C0481838006800F0040055
:1049F00008B9002522E0BC481C3800680020BA49EC
:104A00001C3908604FF6FF70B74910390860B74885
:104A1000091F08600020B4490C390860091D0860AE
:104A2000091D0860B04918390860AF491C31086099
:104A3000FFF756FF08B9002500E00125FF20AA492D
:104A40000860284638BDA8481838006820F0800063
:104A5000A54918390860704730B504460025CA20BA
:104A6000A149086053200860FFF768FF00B91DE006
:104A70009D481C38006820F040009B491C390860A4
:104A8000084600682168084397491C390860964920
:104A90001439A068086008460068A18840EA01400F
:104AA000914914390860FFF7CEFF0125FF208E4998
:104AB0000860284630BD002101607F214160FF2150
:104AC0008160704718B1FF21874A116004E0CA2154
:104AD000854A116053211160704730B504460025A6
:104AE000CA208149086053200860FFF727FF00B9FA
:104AF00014E044B17C481C38006840F010007A494A
:104B00001C39086007E078481C38006820F0100065
:104B100075491C390860FFF796FF0125FF2072498F
:104B20000860284630BD0146002204E0501CC2B295
:104B3000A1F10A00C1B20A29F8DA100741EA1060AF
:104B40007047014600BF080900EB8000420001F0F9
:104B50000F001044C0B270472DE9F04105460C46E5
:104B60000026002755B960481C38006800F0400056
:104B700000B102E00020E07000BF0EE05A481C388F
:104B8000006800F0400020B12078FFF7DAFF064609
:104B900002E00020E07000BF00BF55B120780004A3
:104BA000617840EA0120A1780843E17840EA0146B3
:104BB00011E02078FFF7B7FF4FEA00486078FFF771
:104BC000B2FF48EA0028A078FFF7ADFF48EA0008E6
:104BD000E07848EA0046CA2043490860532008604C
:104BE000FFF7ACFE08B900270CE0414830403E49D1
:104BF00024390860FFF727FFFFF772FE08B9002786
:104C000000E00127FF20384908603846BDE8F08100
:104C10000021C170017041708170704770B5064607
:104C20000C460025304824380068314900EA010567
:104C3000C5F305402070C5F30620607005F07F00C5
:104C4000A07005F48000000CE0705EB92078FFF7DA
:104C500078FF20706078FFF774FF6070A078FFF72E
:104C600070FFA07070BD2DE9F04105460C4600268E
:104C700000274DB9607800F01000102804D160784A
:104C800020F010000A30607005B908E06078FFF786
:104C900058FF0646A078FFF754FF064600BF55B1FF
:104CA000E0780004617840EA0120A1780843217887
:104CB00040EA413611E0E078FFF735FF4FEA00485F
:104CC0006078FFF730FF48EA0028A078FFF72BFF55
:104CD00048EA0008207848EA4036CA2002490860BD
:104CE0005320086006E0000024280040FF007F00F9
:104CF0007F7F7F00FFF722FE08B900270BE0FC480A
:104D00003040FC490860FFF79EFEFFF7E9FD08B957
:104D1000002700E00127FF20F649203108603846CF
:104D2000BDE8F08101210170817041700021C170E6
:104D3000704770B506460C460025EE480068EC4901
:104D400000EA0105280CE070C5F30420607005F04E
:104D50003F00A070C5F3423020705EB9E078FFF7E5
:104D6000F0FEE0706078FFF7ECFE6070A078FFF76F
:104D7000E8FEA07070BD2DE9F04105460E461446D0
:104D800000276DB9DB48001D006800F0400000B14D
:104D900002E00020E07000BFA06800B91AE019E04E
:104DA000D448001D006800F0400020B12078FFF7D3
:104DB000C8FE074602E00020E07000BFA06820B9EE
:104DC000207BFFF7BEFE074604E0207BFFF7B9FE1D
:104DD000074600BF95B120780004617840EA0120C1
:104DE000A1780843E17840EA0140217B40EA016074
:104DF000A1680843616840EA01071BE02078FFF7DB
:104E000092FE4FEA00486078FFF78DFE48EA0028DE
:104E1000A078FFF788FE48EA0008E07848EA0048F2
:104E2000207BFFF780FE48EA0060A16808436168C4
:104E300040EA0107CA20AF492031086053200860CA
:104E4000B6F5807F03D1AB481830076002E0A9486F
:104E50001C300760FF20A74920310860BDE8F081C1
:104E60000021C17001704170817081600121017366
:104E70000021416070472DE9F04106460F46144677
:104E80000025B7F5807F03D19A481830056802E005
:104E900098481C300568C5F305402070C5F306200E
:104EA000607005F07F00A07005F48000000CE070D9
:104EB000C5F30560207305F08040A06005F08030E8
:104EC00060607EB92078FFF73CFE20706078FFF7C5
:104ED00038FE6070A078FFF734FEA070207BFFF7EB
:104EE00030FE2073BDE8F08138B5024600240094FE
:104EF00000230020CA247F4D20352C6053242C60D1
:104F000041B17C4C241D246814437A4D2D1D2C6026
:104F100001201EE0774C241D24689443754D2D1DFF
:104F20002C6000BF734C0834246804EA1223009CF0
:104F3000641C0094009CB4F5803F01D0002BF1D09C
:104F40006C4C0834246804EA12240CB9002000E0F8
:104F50000120FF24674D20352C6038BDCA21654AE9
:104F600020321160532111606249091D096821F046
:104F70000701604A121D1160114609680143116062
:104F8000FF215C4A203211607047CA21594A203201
:104F9000116053211160574910310860FF211160E1
:104FA000704754481030006880B2704718B5014609
:104FB0000023009300220020CA234E4C203423609B
:104FC0005323236049B14B4B1B1D1B6843F4806383
:104FD000484C241D236001201FE0464B1B1D1B680D
:104FE00023F48063434C241D236000BF414B0833EE
:104FF0001B6803F00402009B5B1C0093009BB3F54D
:10500000803F01D0002AF1D03A4B08331B6803F0EF
:1050100004030BB9002000E00120FF23354C2034AD
:10502000236018BDCA22334B20331A6053221A6002
:10503000304A121D126822F480222E4B1B1D1A606A
:105040001A46126840EA01031A432A4B1B1D1A60D4
:10505000FF22284B20331A6070472648001D006845
:1050600000F480207047CA22224B20331A6053225A
:105070001A60204A121D126822F4E0021D4B1B1D0B
:105080001A601A46126840EA01031A43194B1B1DA5
:105090001A60FF22174B20331A60704770B5044620
:1050A0000D460026CA2013492031086053200860AD
:1050B000FFF744FC00B907E044EA05000D4914314C
:1050C0000860FFF7C0FC0126FF200A492031086074
:1050D000304670BD30B504460025CA200549203150
:1050E000086053200860FFF729FC28B915E000008C
:1050F0003FFFFF000428004034B1B848006840F08A
:105100008000B649086005E0B448006820F08000DF
:10511000B2490860FFF797FC0125FF20AF491C3119
:105120000860284630BDCA21AC4A1C3211605321A8
:10513000116030B1A949096841F40001A74A116022
:1051400005E0A649096821F40001A44A1160FF2185
:10515000A24A1C321160704710B50A4600219F4BCD
:105160001B6840F6080423EA04011AB140F4006306
:10517000194300E00143CA23984C1C342360532395
:105180002360964B1960FF23236010BD2DE9F04189
:1051900080460C46154600260027904828300068B7
:1051A0008F4900EA01068D482C3000688D4900EADD
:1051B0000107C6F305402070C6F30620607006F0B4
:1051C0007F00A07006F48000000CE0700020E87002
:1051D000C7F30420687007F03F00A870C7F342309F
:1051E0002870B8F1000F17D12078FFF7AAFC2070C3
:1051F0006078FFF7A6FC6070A078FFF7A2FCA070B3
:105200006878FFF79EFC6870A878FFF79AFCA87092
:105210002878FFF796FC2870BDE8F08141B96F4A05
:105220003832126822EA40026C4B38331A6007E0C9
:105230006A4A3832126842EA4002684B38331A60D0
:10524000704739B1654A383212680243634B3833CC
:105250001A6006E0614A3832126882435F4B383385
:105260001A60704708B5002200925C4A48320092EA
:10527000009A02EB80020092009A116008BD08B506
:10528000014600200090554848300090009800EBFF
:10529000810000900098006808BD504938310968C5
:1052A00021F480314D4A38321160114609680143BA
:1052B0001160704749493831096821F40031474A83
:1052C0003832116011460968014311607047434943
:1052D0003831096821F48021404A38321160114682
:1052E0000968014311607047CA223C4B1C331A60A5
:1052F00053221A6081B1394A126820F004031A431C
:10530000364B1A60354A3832126800F004031A43EB
:10531000324B38331A600FE0304A126820F0040331
:105320009A432E4B1A602D4A3832126800F004035B
:105330009A432A4B38331A60FF22284B1C331A60D9
:10534000704710B5014600200022244B1B1D1B682E
:1053500043F6777403EA040202EA01030BB1012069
:1053600000E0002010BD81B241F080011B4A121DF7
:10537000126802F0800262EA0101184A121D1160EF
:10538000704730B50146002000220023134C38340A
:10539000246804F00402114C24680C4002EAD13560
:1053A00044EA05030D4C241D246804EA11121BB1C4
:1053B00094B20CB1012000E0002030BD00210109B1
:1053C0008AB242F08002054B1B1D1B6803F080036C
:1053D00063EA0202014B1B1D1A6070470828004057
:1053E0007F7F7F003FFFFF0010B50446E348844203
:1053F00008D101218014FFF7E1F90021A014FFF783
:10540000DDF916E0DE48844208D101210014FFF7DF
:10541000C4F900212014FFF7C0F90AE0D9488442FA
:1054200007D10121C013FFF7B8F90021E013FFF7FE
:10543000B4F910BD10B50022028802F441520B8865
:105440004C8823438C882343CC8823430C892343F3
:105450004C8923438C892343CC8923431A430280FC
:10546000838B4FF2FF74234083830B8A038210BD2A
:105470002DE9F04F002502230024012700220026F9
:10548000944690469146B0F81CA04FF2400B0AEAB1
:105490000B0AA0F81CA04FF0020AA0F820A0858BF0
:1054A000D1F808A0BAF1020F01D100BF6CE0B1F849
:1054B00004A0BAF1000F01D1012700E00227DFF8B4
:1054C000C8A2DAF800A00AF4000ABAF1000F09D065
:1054D000DFF8B4A2DAF800A02AF4000ADFF8A8B2D4
:1054E000CBF800A0DFF8A0A20AF17C0ADAF800A04D
:1054F000CAF38818DFF890A20AF17C0ADAF800A053
:10550000CAF30279DFF880A2AAF1040ADAF800A04F
:105510000AF03F0CDFF874A2BAFBFCFA0AFB08FAA7
:10552000BAFBF9F6B1F806A0BAF5007F0ED14FEA42
:10553000162A0AEB8A0A4FEA4A0AD1F808B0BAFBDF
:10554000FBFA0AF1050A1FFA8AF20FE04FEA471A3E
:10555000B6FBFAFA0AEB8A0A4FEA4A0AD1F808B00F
:10556000BAFBFBFA0AF1050A1FFA8AF24FF00A0A9F
:10557000B2FBFAF202F00104A2EB040ACAF34F03F1
:105580004FF6FF7A0AEA0424022B01DBFF2B01DD30
:1055900002230024B1F806A04AEA040A4AEA030AF0
:1055A000A0F820A0B1F804A0B1F80CB04AEA0B0AA8
:1055B000B1F802B04AEA0B0AB1F800B04AEA0B0AA5
:1055C0004AF4006A4AEA05058583BDE8F08F0021A8
:1055D000018041808180C180018141818181C181BF
:1055E0000721018270470021018041808180C180B4
:1055F0000221816000218181704721B1028842F03F
:105600004002028004E002884FF6BF731A40028015
:10561000704721B1828B42F48062828304E0828BE6
:105620004FF6FF331A408283704702884FF2FF73B0
:105630001A40028002880A4302807047B1F5804F09
:1056400004D1028842F48042028004E002884BF6D2
:10565000FF731A40028070474FF6FF62914204D0F8
:10566000028842F48072028004E002884FF6FF63F1
:105670001A400280704721B1828842F00402828081
:1056800004E082884FF6FB731A408280704721B194
:10569000828842F01002828004E082884FF6EF7325
:1056A0001A4082807047014688897047818170471F
:1056B00021B1028842F40052028004E002884DF6D3
:1056C000FF731A4002807047018841F480510180C5
:1056D000704702460020012901D0108B00E0908A1B
:1056E00070470146088A70471AB183880B4383804C
:1056F00002E083888B438380704730B50024002309
:105700000C110125A540ABB21AB185881D438580D7
:1057100002E085889D43858030BD024600201389C4
:105720000B400BB1012000E000207047CA4302810A
:105730007047F0B50246002000240023002501F048
:105740000F070126BE40B4B20B1101269E40B3B232
:10575000968806EA03051689264016B10DB1012088
:1057600000E00020F0BD10B5002201F00F0401237D
:10577000A3409AB2D343038110BD00000030014022
:1057800000380040003C00400838024040787D016D
:1057900010B501218803FFF711F800214FF4804074
:1057A000FFF70CF810BD1A490860704730B50022A9
:1057B0008B071C0F0F2303FA04F2154B08338C10D0
:1057C00053F824309343124C08348D1044F825309C
:1057D00023468C1053F824308C07240F00FA04F46D
:1057E00023430B4C08348D1044F8253030BD094953
:1057F000086070470849086070470020044920315C
:10580000096801F4807109B1012000E000207047AF
:1058100000380140DC0027420004274210B504464E
:10582000FE48844208D101210846FEF7C7FF002147
:105830000120FEF7C3FF9DE0B4F1804F08D10121A4
:105840000846FEF7AAFF00210120FEF7A6FF91E01F
:10585000F348844208D101210220FEF79EFF002177
:105860000220FEF79AFF85E0EE48844208D101212C
:105870000420FEF792FF00210420FEF78EFF79E05E
:10588000E948844208D101210820FEF786FF002163
:105890000820FEF782FF6DE0E448844208D1012130
:1058A0001020FEF77AFF00211020FEF776FF61E05E
:1058B000DF48844208D101212020FEF76EFF00213D
:1058C0002020FEF76AFF55E0DA48844208D1012122
:1058D0000220FEF773FF00210220FEF76FFF49E070
:1058E000D548844209D101210804FEF767FF002151
:1058F0004FF48030FEF762FF3CE0D048844209D18B
:1059000001214804FEF75AFF00214FF40030FEF752
:1059100055FF2FE0CA48844209D101218804FEF7CF
:105920004DFF00214FF48020FEF748FF22E0C548DC
:10593000844208D101214020FEF72FFF00214020A2
:10594000FEF72BFF16E0C048844208D101218020D9
:10595000FEF723FF00218020FEF71FFF0AE0BB486F
:10596000844207D101218015FEF717FF0021A01501
:10597000FEF713FF10BD00220288A84B98420ED0FC
:10598000AC4B98420BD0B0F1804F08D0A44B98425A
:1059900005D0A44B984202D0A34B984204D14FF6B5
:1059A0008F731A404B881A43A04B984207D0A04BE4
:1059B000984204D04FF6FF431A400B891A430280E5
:1059C0004B68C3620B880385944B984202D0994B75
:1059D000984201D18B7A03860123838270474FF06E
:1059E000FF31416000210180018141808172704757
:1059F0000185828270470A46002101884FF68F7325
:105A0000194011430180704741627047C16270477D
:105A10000146486A70470146088D704721B10288E7
:105A200042F00202028004E002884FF6FD731A4041
:105A30000280704721B1028842F00402028004E033
:105A400002884FF6FB731A400280704721B102882A
:105A500042F08002028004E002884FF67F731A4011
:105A60000280704702884FF6F7731A40028002885E
:105A70000A430280704702884FF6FF431A400280B3
:105A800002880A430280704721B1028842F0010275
:105A9000028004E002884FF6FE731A4002807047CD
:105AA00070B5002400220023058C4FF6FE763540A9
:105AB0000584028C8388048B4FF68F752C40B51EAD
:105AC0002C400D882C43751E2A408D892A434D8811
:105AD0002A43524DA84202D0564DA84213D14FF648
