:020000040800F2
:10000000482701201DF0000821F0000823F0000817
:1000100025F0000827F0000829F000082BF0000860
:100020002BF000082BF000082BF000082BF0000844
:100030002BF000082BF0000837B101086B91000885
:100040006F16000879160008831600088D16000840
:1000500097160008A1160008AB160008B516000890
:10006000BF160008C9160008D3160008DD160008E0
:10007000E7160008F1160008FB160008051700082F
:100080000F17000819170008231700082D1700087C
:1000900037170008411700084B17000855170008CC
:1000A0005F17000869170008731700087D1700081C
:1000B00087170008911700089B170008A51700086C
:1000C000AF170008B9170008C3170008CD170008BC
:1000D000D7170008E1170008EB170008F51700080C
:1000E000FF17000809180008131800081D18000859
:1000F00027180008311800083B18000845180008A8
:100100004F18000859180008631800086D180008F7
:1001100077180008811800088B1800089518000847
:100120009F180008A9180008B3180008BD18000897
:10013000C7180008D1180008DB180008E5180008E7
:10014000EF180008F9180008031900080D19000835
:1001500017190008211900082B1900083519000883
:100160003F19000849190008531900085D190008D3
:1001700067190008711900087B1900088519000823
:100180008F190008DFF80CD01AF086FF00480047EE
:10019000F50C00084827012008B504E06A46002154
:1001A000FA200EF011F9F9E708B5F94818F02AFB22
:1001B0006946F8480CF001FF08BD2DE9F04186B012
:1001C0008046002700240025002602F076FD074621
:1001D0001FB9F1A1F54801F0CAFEED4818F040FB47
:1001E0000020F3498875F3A1F04801F0C0FE5EE0FD
:1001F000E74844688568C668002C51D00220EC4965
:100200008875084640790979E94AD278E84B9B78A5
:10021000CDE90032CDE90210E54843780278EFA13C
:10022000E24801F0A4FE210EE1484173210C017364
:10023000210AC17201468C72407B097BCDE9001016
:10024000DB48C37A827AF3A1D84801F090FE290EE8
:10025000D7484174290C0174290AC17301468D7372
:10026000407C097CCDE90010D148C37B827BF5A19D
:10027000CE4801F07CFE310ECD484175310C017540
:10028000310AC17401468E74407D097DCDE90010AC
:10029000C748C37C827CF7A1C44801F068FE07E030
:1002A00018F049FA05AA0021FA200EF08DF89FE710
:1002B00000BFFFF779FF06B0BDE8F08108B500BFC9
:1002C00005E06A4600214FF47A700EF07DF8F8E7F9
:1002D0000EB500BF0024D9E2F24800780128FAD117
:1002E000F14800780F286ED2DFE800F0081A3A5A79
:1002F0007B9BB6D6FDEEEDECEBEAE90001F0D0FE1B
:1003000002A800210B460322CDE9001008460EF09A
:10031000B6F80120E44908700020E4490870B4E20E
:1003200042F210734FF44872E1A1E2A001F007FF1E
:10033000044644B9DC480078401CDB4908700020C2
:10034000DA4908700BE0D9480078401CD74908709A
:1003500008460078052802DD0020D349087094E2A1
:1003600042F210734FF44872D1A1D4A001F0E7FE1D
:10037000044644B9CC480078401CCB4908700020A2
:10038000CA4908700BE0C9480078401CC74908708A
:1003900008460078052802DD0020C349087074E291
:1003A00042F210734FF44872C1A1C6A001F0C7FE1B
:1003B00004464CB9BC480078401CBB49087000207A
:1003C000BA4908700CE05FE2B8480078401CB749B1
:1003D000087008460078052802DD0020B249087040
:1003E00053E242F210734FF44872B1A1B9A001F088
:1003F000A6FE044644B9AC480078401CAA490870DF
:100400000020AA4908700BE0A8480078401CA749C2
:10041000087008460078052802DD0020A24908700F
:1004200033E242F210734FF44872A1A1ADA001F083
:1004300086FE044644B99C480078401C9A490870DE
:1004400000209A49087006E098480078052802DDE7
:1004500000209549087018E242F210734FF4487278
:1004600093A1A3A001F06BFE044644B98E48007826
:10047000401C8D49087000208C4908700BE08B48A7
:100480000078401C8949087008460078052802DD7C
:10049000002085490870F8E142F210734FF4487269
:1004A00083A197A001F04BFE04467CB97E480078FA
:1004B000401C7D49087000207C49087012E0C4E1AE
:1004C000A2E181E15FE14EE02DE00CE077480078A9
:1004D000401C7649087008460078052802DD002097
:1004E00071490870D1E142F210734FF4487270A163
:1004F0008AA001F024FE044644B96B480078401CF1
:10050000694908700020694908700BE06748007865
:10051000401C6649087008460078052802DD002066
:1005200061490870B1E142F210734FF4487260A162
:1005300080A001F004FE044644B95B480078401CEA
:10054000594908700020594908700BE05748007855
:10055000401C5649087008460078052802DD002036
:100560005149087091E142F210734FF4487250A162
:1005700078A001F0E4FD044644B94B480078401CE3
:1005800049490870002049490870FBE0EEE000008E
:1005900020400020E41100206C7769705F6465766C
:1005A0005F696E6974204F4B0D00000000480040E9
:1005B00008400020D5FDD4DAB2E9D5D244484350F2
:1005C000B7FECEF1C6F72CC7EBC9D4B5C82E2E2E78
:1005D0002E2E2E2E2E2E2E2E0D0A0000CDF8BFA868
:1005E000656EB5C44D4143B5D8D6B7CEAA3A2E2EC6
:1005F0002E2E2E2E2E2E2E2E2E2E2E2E2E2E2564EE
:100600002E25642E25642E25642E25642E25640D4A
:100610000A000000CDA8B9FD44484350BBF1C8A171
:10062000B5BD4950B5D8D6B72E2E2E2E2E2E2E2E35
:100630002E2E2E2E2E2E25642E25642E25642E255C
:10064000640D0A00CDA8B9FD44484350BBF1C8A1D0
:10065000B5BDD7D3CDF8D1DAC2EB2E2E2E2E2E2E4D
:100660002E2E2E2E2E2E25642E25642E25642E252C
:10067000640D0A00CDA8B9FD44484350BBF1C8A1A0
:10068000B5BDB5C4C4ACC8CFCDF8B9D82E2E2E2E6A
:100690002E2E2E2E2E2E25642E25642E25642E25FC
:1006A000640D0A000D000020040000200500002059
:1006B0004F4B00000D0A41540D0A00000D0A415431
:1006C000490D0A000D0A41542B4350494E3F0D0A73
:1006D000000000000D0A41542B435245473D310DA7
:1006E0000A0000000D0A41542B4353510D0A00002B
:1006F0000D0A41542B435245473F0D0A00000000AC
:100700000D0A41545E534943533D302C636F6E5480
:100710007970652C47505253300D0A000D0A415430
:100720005E534943533D302C41504E2C434D4E4572
:10073000540D0A000D0A41545E534953533D302C69
:10074000737276547970652C536F636B65740D0A00
:10075000000000000D0A41545E534953533D302CB4
:10076000636F6E49642C300D0A000000FE4800786B
:10077000401CFD49087008460078052802DD00206D
:10078000FA49087081E042F210734FF44872AFF2F8
:10079000E001F7A001F0D3FC044644B9F348007827
:1007A000401CF24908700020EF4908700BE0EE4849
:1007B0000078401CEC49087008460078052802DDE6
:1007C0000020EA49087060E044F620639A10AFF216
:1007D0002011F5A001F0B3FC044644B9E3480078C9
:1007E000401CE24908700020DF4908700BE0DE4839
:1007F0000078401CDC49087008460078052802DDB6
:100800000020DA49087040E042F210734FF4487259
:10081000AFF26411E8A001F092FC044644B9D34859
:100820000078401CD14908700020CF4908700BE0C7
:10083000CD480078401CCC4908700846007805284F
:1008400002DD0020C94908701FE042F210734FF426
:100850004872AFF2A411DDA001F071FC044634B976
:10086000FF20C24908700020DD4908700BE0BE4837
:100870000078401CBC49087008460078052802DD55
:100880000020BA49087000E000BF00BF24E59CB01A
:1008900000BF642102A81AF09AFB00BF00BF0AE063
:1008A00017F041FE1BA800210B460522CDE90010E0
:1008B00008460DF0E4FDF3E70EB51DE04FF47A7144
:1008C000002001F0E1FC70B90421C64803F06DFC82
:1008D000012804D10421C34803F076FC03E004217D
:1008E000C04803F06FFC02A800210B460122CDE9AD
:1008F000001008460DF0C3FDE0E70EB517E0082133
:10090000B84803F052FC012804D10821B54803F08F
:100910005BFC03E00821B34803F054FC02A800216B
:100920000B460122CDE9001008460DF0A8FDE6E7D0
:1009300010B58AB0002409A8032100220592CDE950
:1009400006210890104680210C22A74BCDE90132E8
:10095000CDE9031005200023A44AA5A10090A748D3
:100960000CF03DFA09A8032100220592CDE90621E9
:100970000890104680210C22A14BCDE90132CDE92F
:100980000310052000239F4A9FA10090A1480CF06E
:1009900026FA09A8032100220592CDE90621089034
:1009A00010464FF47A7164229B4BCDE90132CDE9B8
:1009B000031004200023994A99A100909B480CF051
:1009C0000EFA09A8032100220592CDE9062108901C
:1009D000104680210C22964BCDE90132CDE903105F
:1009E00005200023934A94A1009097480CF0F7F952
:1009F00009A8032100220592CDE90621089010469E
:100A00004FF480711922914BCDE90132CDE90310E9
:100A1000052000238E4A8FA1009092480CF0DFF948
:100A200009A8032100220592CDE90621089010466D
:100A30004FF4807119228C4BCDE90132CDE90310BE
:100A400005200023894A8AA100908C480CF0C7F940
:100A500009A8032100220592CDE90621089010463D
:100A60004FF480711922864BCDE90132CDE9031094
:100A700005200023834A84A1009086480CF0AFF93A
:100A80000AB010BD70B504460D46012082490880A9
:100A900082A1864801F06BFA70BD10B502460B4684
:100AA0000020002110BD00B585B004A80021AFF2E0
:100AB00015020223CDE90032CDE9021042F2107393
:100AC0004FF4FA727AA17C480DF0BDFEBDF81020FB
:100AD0007AA1764801F04BFA04A977480EF07AF82B
:100AE00004A80021AFF263020123CDE90032CDE971
:100AF00002100B4642F2107273A175480DF0A3FE6E
:100B000004A973480EF066F804AB012271A1744881
:100B10000AF0C7FE04AB012272A174480AF0C1FEBC
:100B200005B000BDF8B506460025002407F02CFDF1
:100B300000F0FBFB68460BF004FE6A460121084604
:100B400008F0DFFD00BF00BF08F014FA044600BF44
:100B500000BFFFF7A8FFFFF7EBFE00BF00BF204676
:100B600008F00CFA00BFC3E00500002004000020DC
:100B70000D0A41545E534953533D302C61646472F5
:100B80006573732C22736F636B7463703A2F2F310C
:100B900038302E3136392E31342E33343A31363620
:100BA0003530220D0A0000000D0A41545E534953AE
:100BB0004F3D300D0A0000000D0A41545E4950437C
:100BC000464C3D352C32300D0A0000000D0A4154D0
:100BD0005E4950454E5452414E533D300D0A00007F
:100BE0000D0000200008024098050020FB080008C6
:100BF0006C656430207461736B000000D4040020C5
:100C00005C080020B90800086C65643120746173C9
:100C10006B00000098070020301C00208F0800089F
:100C2000757361727433207461736B006C1B0020E8
:100C3000200B0020D1020008677072735F696E6933
:100C4000745F7461736B00005C0A0020E40D002087
:100C5000BD0200086574685F696E69745F746173D2
:100C60006B000000200D0020A8120020BB0100082E
:100C7000646863705F7461736B000000E4110020AE
:100C80006C170020990100087261777564705F74B9
:100C900061736B00A816002030000020677072732B
:100CA0005F63616C6C6261636B0D00000048004023
:100CB000746D723100000000302C00200D657272DE
:100CC000313D25640D000000677072730000000064
:100CD000642C0020757361727433206D736700009B
:100CE000D02B0020657468206D736700002C0020F5
:100CF00000BFF8BD9AB0002400BF642101A81AF01B
:100D000066F900BF00F0BFFA01F0D7FF044624B92E
:100D1000AFF27C710D4801F02AF94FF47A7001F0BE
:100D2000ABFA01E001F003FE0948807D022803D000
:100D30000748807DFF28F5D10EF018FC05462846AF
:100D40000EF085FC01E001F0F2FDFCE700480040F8
:100D5000084000200CB50020019000906B4800680E
:100D600040F480306949086000BF6848006800F4BA
:100D7000003000900198401C0190009818B901982B
:100D8000B0F5A06FF1D16148006800F4003010B1F7
:100D90000120009001E0002000900098012838D147
:100DA0005A48083000685949083108600846006808
:100DB00040F4004008600846006840F4A050086015
:100DC0005348091F0860081F006840F08070091F21
:100DD000086000BF4D48006800F000700028F9D09E
:100DE00040F203704B49086048480830006820F022
:100DF00003004649083108600846006840F00200D8
:100E0000086000BF41480830006800F00C00082866
:100E1000F8D10CBD10B53D48006840F001003B49D9
:100E200008600020394908310860384800683A49AC
:100E30000840364908603948091D0860081F0068E5
:100E400020F48020091F0860002030490C31086020
:100E5000FFF780FF4FF000603149086010BD70B5AA
:100E600000200022022300240221284D08352D688D
:100E700005F00C0020B1042806D0082834D107E082
:100E8000284D294E356033E0284D274E35602FE040
:100E90001E4D2D1D2D68C5F380541C4D2D1D2D6834
:100EA00005F03F0154B1214DB5FBF1F5174E361D4C
:100EB0003668C6F3881605FB06F209E0194DB5FB46
:100EC000F1F5124E361D3668C6F3881605FB06F29C
:100ED0000E4D2D1D2D68C5F301456D1C6B00B2FB39
:100EE000F3F5114E356003E00E4D0F4E356000BF37
:100EF00000BF064D08352D68C5F303150C4E705D17
:100F0000094D2D68C540084E356070BD003802405F
:100F1000193C4005003C0240FFFFF6FE1030002463
:100F200008ED00E00024F4001000002040787D016E
:100F30001400002010B5FFF76DFF0121072003F01A
:100F400097FB0121382003F093FB01214FF4E0705F
:100F500003F08EFB0121FB4803F0BDFB0121FA48A1
:100F600003F0B9FB0121080303F0C6FB012188034C
:100F700003F0C2FB01214FF0606003F079FB10BD6C
:100F80001CB54FF48070009002208DF80400002002
:100F90008DF8060003208DF8050001208DF807006C
:100FA0006946EA4803F092F800220821E74803F076
:100FB00018F900214FF4800003F07AFA1CBD1CB52B
:100FC000FFF7DEFF4FF40050009001208DF8040081
:100FD00000208DF8060003208DF8050000208DF814
:100FE00007006946DA4803F071F886200090032074
:100FF0008DF8050002208DF8040000208DF8060011
:101000008DF807006946D14803F060F80B220121F2
:10101000CE4803F0E6F80B220221CC4803F0E1F8B9
:101020000B220721C94803F0DCF84FF46050009010
:101030006946C84803F04AF80B221146C54803F038
:10104000D0F80B220C21C34803F0CBF80B220D2162
:10105000C04803F0C6F8322000906946BE4803F04D
:1010600035F80B220121BC4803F0BBF80B22042108
:10107000B94803F0B6F80B220521B74803F0B1F8E0
:101080001CBD1CB508220221B34803F0AAF80822AF
:101090000221AF4803F0A5F807220821AC4803F06D
:1010A000A0F807220921AA4803F09BF80820009025
:1010B00001208DF8040000208DF8060003208DF833
:1010C000050001208DF807006946A34802F0FEFFE5
:1010D0000420009001208DF8040000208DF8060007
:1010E00003208DF8050001208DF8070069469A4815
:1010F00002F0ECFF4FF44070009002208DF80400E5
:1011000000208DF8060002208DF8050001208DF8E2
:10111000070069468E4802F0D9FF042000900220A3
:101120008DF8040000208DF8060002208DF80500DF
:1011300001208DF807006946874802F0C7FF0420A8
:10114000009002208DF8040000208DF80600022097
:101150008DF8050001208DF8070069467C4802F0F3
:10116000B5FF052203217B4803F03BF8052204214B
:10117000784803F036F805221146764803F031F836
:101180003820009002208DF8040000208DF8060021
:1011900003208DF8050001208DF8070069466D4891
:1011A00002F094FF4FF40040009001208DF80400FD
:1011B00000208DF8060003208DF8050001208DF831
:1011C00007006946614802F081FF1CBD08B54FF475
:1011D000E06002F00FFE26208DF8000001208DF85F
:1011E000010000208DF8020001208DF80300684600
:1011F00002F005FE27208DF8000001208DF8010087
:101200008DF802008DF80300684602F0F8FD3520E5
:101210008DF8000001208DF8010002208DF80200F9
:1012200001208DF80300684602F0E9FD1D208DF8CD
:10123000000000208DF8010002208DF8020001203E
:101240008DF80300684602F0DAFD02208DF80000F8
:1012500000208DF8010003208DF8020001208DF898
:101260000300684602F0CBFD3D208DF80000002011
:101270008DF8010001208DF802008DF8030068460A
:1012800002F0BDFD08BD10B5FFF754FEFFF79EFF4D
:10129000FFF7F7FEFFF793FE4FF4E13000F05EFD3D
:1012A0004FF4E13000F0CDFD4FF4E13000F03CFEB2
:1012B000772140F2F31000F0B6FF00F09AFB01F046
:1012C000D8F810BD10B50121402003F0E2F9234801
:1012D000006840F00800214908600846006840F0B6
:1012E0000400086000BF1D48001D006800F00100F8
:1012F0000028F8D01948083004681848006820F021
:101300000800164908600846006820F004000860DC
:101310000021402003F0BDF9204610BD1FB56846EE
:1013200003F011F9019804B010BD70B5FFF7F6FF96
:1013300004460B480068B4FBF0F5284607F02FFF81
:1013400070BD000002001600000004100000024002
:10135000000C024000040240000802400008065051
:10136000C8B5010810B58148006840F080707F4919
:10137000086000207E4948600846006840F001008F
:101380000860FFF7CBFF0446204607F06EF910BD5A
:101390007748406870471CB507220A21754802F05B
:1013A00020FF07220B21734802F01BFF07220221B6
:1013B000714802F016FF072203216F4802F011FF67
:1013C0000820009001208DF8040000208DF8060010
:1013D00003208DF8050001208DF807006946674855
:1013E00002F074FE0420009001208DF8040000201B
:1013F0008DF8060003208DF8050001208DF8070008
:1014000069465E4802F062FE0C20009002208DF8D2
:10141000040000208DF8060002208DF80500012050
:101420008DF807006946544802F050FE4FF44060C2
:10143000009002208DF8040000208DF806000220A4
:101440008DF8050001208DF807006946494802F033
:101450003DFE05220321474802F0C3FE0522042178
:10146000444802F0BEFE05221146424802F0B9FE91
:101470003820009002208DF8040000208DF806002E
:1014800003208DF8050001208DF8070069463948D2
:1014900002F01CFE4FF40040009001208DF8040083
:1014A00000208DF8060003208DF8050001208DF83E
:1014B00007006946304802F009FE02200090012032
:1014C0008DF8040000208DF8060003208DF805003B
:1014D00001208DF807006946284802F0F7FD4FF417
:1014E0008050009001208DF8040000208DF8060047
:1014F00003208DF8050001208DF8070069461D487E
:1015000002F0E4FD8020009001208DF8040000200E
:101510008DF8060003208DF8050001208DF80700E6
:101520006946154802F0D2FD0221144802F04CFE33
:101530001CBD012080F3138800BF00BFBFF34F8F95
:101540000A48F038006800F4E0600D490843001DC7
:101550000649F0390860BFF34F8F00BF00BFFEE7B8
:10156000704710B502F07BFE10BD0000FCED00E0FE
:10157000001000E0000402400000024000080240A9
:101580000000FA05704710B50446522C04D204F14D
:101590001001C8B207F066F910BD10B507F0E6FCFF
:1015A00010BD10B50446522C04D204F11001C8B28B
:1015B00007F0FCF910BD70B504460D460026522C0C
:1015C00010D200BF00BF07F0D5FC064600BF00BF29
:1015D000F44840F8245000BF00BF304607F0CEFC6E
:1015E00000BF00BF70BD70B504460D460026522CEA
:1015F00013D200BF00BF07F0BDFC064600BF00BF0E
:1016000004F11001C8B2294607F0C6FA00BF00BFB6
:10161000304607F0B3FC00BF00BF70BD704710B587
:10162000002404E0E0492046FFF7C5FF641C522C6B
:10163000F8D310BD70B50446002600BF00BF07F008
:1016400099FC064600BF00BF07F0C2FE00BF00BF06
:10165000304607F093FC00BF00BF522C04D2D148A3
:1016600050F8245005B1A84707F0C3FE70BD10B56F
:101670000020FFF7DFFF10BD10B50120FFF7DAFFF4
:1016800010BD10B50220FFF7D5FF10BD10B5032027
:10169000FFF7D0FF10BD10B50420FFF7CBFF10BD42
:1016A00010B50520FFF7C6FF10BD10B50620FFF7E7
:1016B000C1FF10BD10B50720FFF7BCFF10BD10B56E
:1016C0000820FFF7B7FF10BD10B50920FFF7B2FFE4
:1016D00010BD10B50A20FFF7ADFF10BD10B50B20EF
:1016E000FFF7A8FF10BD10B50C20FFF7A3FF10BD3A
:1016F00010B50D20FFF79EFF10BD10B50E20FFF7AF
:1017000099FF10BD10B50F20FFF794FF10BD10B565
:101710001020FFF78FFF10BD10B51120FFF78AFFD3
:1017200010BD10B51220FFF785FF10BD10B51320B6
:10173000FFF780FF10BD10B51420FFF77BFF10BD31
:1017400010B51520FFF776FF10BD10B51620FFF776
:1017500071FF10BD10B51720FFF76CFF10BD10B55D
:101760001820FFF767FF10BD10B51920FFF762FFC3
:1017700010BD10B51A20FFF75DFF10BD10B51B207E
:10178000FFF758FF10BD10B51C20FFF753FF10BD29
:1017900010B51D20FFF74EFF10BD10B51E20FFF73E
:1017A00049FF10BD10B51F20FFF744FF10BD10B555
:1017B0002020FFF73FFF10BD10B52120FFF73AFFB3
:1017C00010BD10B52220FFF735FF10BD10B5232046
:1017D000FFF730FF10BD10B52420FFF72BFF10BD21
:1017E00010B52520FFF726FF10BD10B52620FFF706
:1017F00021FF10BD10B52720FFF71CFF10BD10B54D
:101800002820FFF717FF10BD10B52920FFF712FFA2
:1018100010BD10B52A20FFF70DFF10BD10B52B200D
:10182000FFF708FF10BD10B52C20FFF703FF10BD18
:1018300010B52D20FFF7FEFE10BD10B52E20FFF7CE
:10184000F9FE10BD10B52F20FFF7F4FE10BD10B546
:101850003020FFF7EFFE10BD10B53120FFF7EAFE94
:1018600010BD10B53220FFF7E5FE10BD10B53320D6
:10187000FFF7E0FE10BD10B53420FFF7DBFE10BD12
:1018800010B53520FFF7D6FE10BD10B53620FFF796
:10189000D1FE10BD10B53720FFF7CCFE10BD10B53E
:1018A0003820FFF7C7FE10BD10B53920FFF7C2FE84
:1018B00010BD10B53A20FFF7BDFE10BD10B53B209E
:1018C000FFF7B8FE10BD10B53C20FFF7B3FE10BD0A
:1018D00010B53D20FFF7AEFE10BD10B53E20FFF75E
:1018E000A9FE10BD10B53F20FFF7A4FE10BD10B536
:1018F0004020FFF79FFE10BD10B54120FFF79AFE74
:1019000010BD10B54220FFF795FE10BD10B5432065
:10191000FFF790FE10BD10B54420FFF78BFE10BD01
:1019200010B54520FFF786FE10BD10B54620FFF725
:1019300081FE10BD10B54720FFF77CFE10BD10B52D
:101940004820FFF777FE10BD10B54920FFF772FE63
:1019500010BD10B54A20FFF76DFE10BD10B54B202D
:10196000FFF768FE10BD10B54C20FFF763FE10BDF9
:1019700010B54D20FFF75EFE10BD10B54E20FFF7ED
:1019800059FE10BD10B54F20FFF754FE10BD10B525
:101990005020FFF74FFE10BD10B55120FFF74AFE53
:1019A00010BD0000982C00201D16000810B5002462
:1019B0004FF40041C04802F007FC902000F0A3FC67
:1019C000002000F0A0FC002000F09DFC002000F0B2
:1019D0009AFCFF2000F097FC44EA0024FF2000F06E
:1019E00092FC04434FF40041B34802F0EBFB204665
:1019F00010BD10B500244FF40041AF4802F0E2FBE7
:101A000000F05AFCFF2000F07EFCFFF7CFFF0446F9
:101A10002246AAA1AD4800F0AAFA10BD10B50024D4
:101A20004FF40041A44802F0CFFB052000F06BFC0E
:101A3000FF2000F068FC04464FF400419E4802F08D
:101A4000C1FB204610BD10B54FF400419A4802F08A
:101A5000BBFB062000F057FC4FF40041964802F013
:101A6000B1FB10BD10B54FF40041934802F0ACFB40
:101A7000042000F048FC4FF400418F4802F0A2FB24
:101A800010BD10B500BFFFF7C9FF00F0010000282E
:101A9000F9D110BD2DE9F04106460C461746002548
:101AA0004FF40041844802F08FFB032000F02BFC30
:101AB000C4F3074000F027FCC4F3072000F023FC28
:101AC000E0B200F020FC00BF05E0FF2000F01BFCAE
:101AD0007055681C85B2BD42F7DB4FF40041764873
:101AE00002F070FBBDE8F0812DE9F04106460C469E
:101AF00017460025FFF7A7FF4FF400416E4802F09C
:101B000063FB022000F0FFFBC4F3074000F0FBFB87
:101B1000C4F3072000F0F7FBE0B200F0F4FB00BFD5
:101B200004E0705D00F0EFFB681C85B2BD42F8DB9D
:101B30004FF40041604802F045FBFFF7A2FFBDE80B
:101B4000F0812DE9F04107460E4614460025F0B21B
:101B5000C0F58075AC4200DC254612E02A463146CD
:101B60003846FFF7C1FFAC4200D10BE02F442E44B2
:101B7000601B84B2B4F5807F02DD4FF4807500E015
:101B80002546EBE700BFBDE8F08110B5044624030D
:101B9000FFF759FFFFF775FF4FF40041464802F089
:101BA00013FB202000F0AFFBC4F3074000F0ABFBB9
:101BB000C4F3072000F0A7FBE0B200F0A4FB4FF451
:101BC00000413D4802F0FEFAFFF75BFF10BD2DE932
:101BD000F05F81460F4616464FF00008C2460024CB
:101BE0000025DFF8ECB04FEA1738C7F30B0ACAF547
:101BF0008054A64200DC344644E04FEA08314FF4FA
:101C000080525846FFF746FF002508E00AEB050022
:101C10001BF80000FF2800D003E0681C85B2A54235
:101C2000F4DB00BFA54216DA4046FFF7AEFF002501
:101C300007E019F8050005EB0A010BF80100681C24
:101C400085B2A542F5DB4FEA08314FF48052584681
:101C5000FFF777FF04E0224639464846FFF771FF59
:101C6000A64200D10FE008F101084FF0000AA1449C
:101C70002744301B86B2B6F5805F02DD4FF48054F6
:101C800000E03446B9E700BFBDE8F09F10B5FFF7AC
:101C9000DAFEFFF7F6FE4FF40041074802F094FA2F
:101CA000C72000F030FB4FF40041034802F08AFAED
:101CB000FFF7E7FE10BD00000000024077323571EB
:101CC00078784944203D2025640D000000480040FC
:101CD000E02D002010B5002407F07AFB40F22551DA
:101CE000E64804F0BAFDF8B140F22551E34804F0AB
:101CF000EBFDE24804F0EFFCC4B2E148008898B97B
:101D0000E04800680088B0F5007F0EDADD48006822
:101D10000188DC4800680088401CDA4A126810809C
:101D2000D8480068801C445409E00020D54909685F
:101D3000088040F20221D348006819F048F940F2C7
:101D40002771CE4804F089FD28B1002240F22771A6
:101D5000CA4804F047FD07F04CFB10BD1FB5044610
:101D600000940020ADF80400ADF80600ADF80800BE
:101D7000ADF80C000C20ADF80A006946BF4804F02D
:101D8000F3FB012240F22551BC4804F02BFD012158
:101D9000BA4804F071FCAFF2C3012620FFF70BFC38
:101DA0001FBD1FB5002400200190029007F010FB1A
:101DB00040F22551B44804F050FD40B340F22551A3
:101DC000B14804F081FDB04804F085FCC4B2AF48CE
:101DD00000680088B0F5007F1ADAAC480068018816
:101DE000AA4800680088401CA84A12681080A748CA
:101DF0000068801C445403A80090A448006802882E
:101E00000023A2480168891CA1480AF04AF809E0A9
:101E100000209E490968088040F202219B48006822
:101E200019F0D5F840F22771974804F016FD28B153
:101E3000002240F22771944804F0D4FC07F0D9FA4C
:101E40001FBD1FB5044600940020ADF80400ADF896
:101E50000600ADF80800ADF80C000C20ADF80A0043
:101E60006946894804F080FB012240F225518648EA
:101E700004F0B8FC0121844804F0FEFBAFF2DD0160
:101E80002720FFF798FB1FBD1FB5002400200190FD
:101E9000029007F09DFA40F225517E4804F0DDFCE7
:101EA00040B340F225517B4804F00EFD794804F020
:101EB00012FCC4B2784800680088B0F5007F1ADAD6
:101EC000754800680188744800680088401C724AA0
:101ED0001268108070480068801C445403A8009069
:101EE0006A4800680288002368480168891C6848BD
:101EF00009F0D7FF09E0002067490968088040F22F
:101F000002216548006819F062F840F227716148C3
:101F100004F0A3FC28B1002240F227715D4804F0D0
:101F200061FC07F066FA1FBD1FB50446009400204F
:101F3000ADF80400ADF80600ADF80800ADF80C00EF
:101F40000C20ADF80A006946524804F00DFB01224E
:101F500040F225514F4804F045FC01214D4804F062
:101F60008BFBAFF2DB013520FFF725FB1FBD0FB464
:101F700070B58AB0064610A801904021304604F0A2
:101F800056FC73E00F9800785C281CD10F98401C19
:101F90000F9000786E2809D072280FD10D2130469D
:101FA00004F095FB0F98401C0F900BE00A2130467F
:101FB00004F08DFB0F98401C0F9003E00F98401C1D
:101FC0000F9000BF4BE00F980078252840D10F9864
:101FD000401C0F900078642818D0732833D10198E2
:101FE00010C801900BE02178304604F070FB00BF70
:101FF0004021304604F01BFC0028F9D0641C2078F6
:102000000028F0D10F98401C0F9020E0019820C8C4
:1020100001902A4621A102A819F0CEF802AC0BE0EB
:102020002178304604F053FB00BF4021304604F0D5
:10203000FEFB0028F9D0641C20780028F0D10F980E
:10204000401C0F9003E00F98401C0F9000BF06E06B
:102050000F9810F8011B0F90304604F038FB00BFBA
:102060004021304604F0E3FB0028F9D00F980078B7
:10207000002887D10AB070BC5DF814FB0044004012
:1020800030000020280000200048004024000020EC
:10209000D02B0020005000402C00002025640000C0
:1020A0000EB50221454802F08DF84FF480514448A6
:1020B00002F08AF802A800214FF4FA730A46CDE92B
:1020C000001008460CF0DBF980213E4802F07CF855
:1020D00002A8002114230A46CDE9001008460CF09E
:1020E000CEF98021374802F06DF802A80021322392
:1020F0000A46CDE9001008460CF0C1F94FF48051B2
:102100002F4802F061F802A8002164230122CDE9E2
:10211000001008460CF0B3F90EBD70B5044600255A
:1021200029480168891C2948FFF721FF21462648D4
:102130000068801C18F056FF0546284670BD2DE942
:10214000F84304460D4616461F464FF0010800218D
:10215000082000F099F829E040F202211A480068AE
:1021600018F035FF00201A49088021461948FFF76A
:10217000FEFE6A46002130460CF026F90120144983
:1021800008802846FFF7C9FF28B14FF0000800205B
:102190000F4908800DE03946082000F075F828B195
:1021A0004FF0010800200A49088002E0B8F1010F51
:1021B000D2D000BF4046BDE8F883000000080240CE
:1021C00000040240000002402800002000480040B7
:1021D000300000200044004010B5002401213248A6
:1021E00004F087F801281DD101212F4804F092F84E
:1021F0002E48006820B12D480068401E2B49086019
:10220000002408E02A4850F82400401C284941F8DE
:102210002400601C84B2092CF4DB26480068401CB2
:102220002449086010BD3EB505460C461E4803F023
:10223000FBFA0020ADF80200ADF808000195ADF8FA
:1022400000406946184803F09CFB0121164804F041
:102250004DF80021144803F0DDFB0122114612481D
:1022600004F030F80121104803F014FCAFF297019C
:102270001D20FFF7A0F93EBD0C49086000BF0B49C7
:1022800009680029FBD1704710B502460020084BB1
:1022900053F822308B4204D30023054C44F82230FB
:1022A00000E0012010BD00000004004034000020C8
:1022B000E43F00204000002000B585B00020ADF8CC
:1022C00000004FF48270ADF802000020ADF8040069
:1022D0000220ADF806000120ADF808004002ADF87C
:1022E0000A000020ADF80C00ADF80E000720ADF894
:1022F00010006946104803F0A3F801210E4803F0CE
:1023000082F905B000BD10B5044600BF02210A489D
:1023100003F009FA0028F9D02146074803F0CCF968
:1023200000BF0121044803F0FEF90028F9D002485B
:1023300003F0BFF9C0B210BD0030014010B54FF43A
:10234000806003F004F8012802D1800203F011F844
:102350004FF4800001F043FE10BD10B54FF48070C3
:1023600002F0F5FF012802D1000203F002F84FF459
:10237000003001F034FE10BDF8B504460D46174696
:102380001E468DF803408DF801508DF802708DF8CF
:1023900000606946012002F06CFCF8BDF8B5044607
:1023A0000D4617461E468DF800408DF801508DF8F9
:1023B00002708DF803606946012002F0D3FBF8BD7E
:1023C000014600BF080900EB8000420001F00F0049
:1023D0001044C0B2704710B586B00446A07861784A
:1023E00022782379CDE90032CDE902106379E288C1
:1023F00073A17A48FFF7BBFDA0798DF813006079CF
:102400008DF8110020798DF81200E0788DF8100019
:102410002078FFF7D5FF8DF814006078FFF7D0FF24
:102420008DF81500A078FFF7CBFF8DF81600A07887
:10243000617822782379CDE90032CDE90210637901
:10244000E28867A16548FFF792FD9DF816209DF888
:1024500015109DF814000023FFF7A0FF9DF812202F
:102460009DF811109DF813000323FFF785FF06B0B8
:1024700010BD00B585B01120ADF8060002208DF822
:10248000050017208DF8040002208DF800000420BC
:102490008DF8010000208DF80200012001F001FFFD
:1024A000012001F0CBFF00BF412001F080FF002898
:1024B000FAD04FF4807002F0B5F8012002F0CDF8A8
:1024C00002F014FA002002F0E0FE4AF2A551884220
:1024D00010D07F200390FF2004900020029002A8DB
:1024E00002F0C0FA6846FFF776FF4AF2A5510020D5
:1024F00002F0BEFEAFF29D112920FFF75CF8AFF2AB
:10250000C3115120FFF757F8AFF2CF110320FFF7A7
:1025100052F805B000BD10B586B0044605A90120EB
:1025200002F082FB04A9012002F009FC9DF81300CF
:10253000E0809DF8110060719DF8120020719DF8F7
:102540001000FFF73DFFE0709DF81400FFF738FF23
:1025500020709DF81500FFF733FF60709DF816009E
:10256000FFF72EFFA070A078617822782379CDE95B
:102570000032CDE902106379E28820A11748FFF705
:10258000F6FC06B010BD10B54FF4006002F0DFFE9F
:10259000012802D1C00202F0ECFE4FF4001001F05D
:1025A0001EFD10BD0146002204E0501CC2B2A1F184
:1025B0000A00C1B20A29F8DA100741EA1060704730
:1025C00074696D65323D25642D25642D25642025B3
:1025D000643A25643A25640D00000000004800407C
:1025E00074696D65333D25642D25642D2564202592
:1025F000643A25643A25640D000000006461746546
:10260000313D25642D25642D25642025643A2564FB
:102610003A25640D0000000010B5FD480DF087FB61
:1026200010BD7FB5002400250026FA48807D10B13A
:1026300001287DD10AE0F64816F012F90120F5498B
:102640008875F5A1FE48FFF792FC6EE1F0484468FA
:102650008568C668002C51D00220EE49887508466E
:1026600040790979EB4AD278EA4B9B78CDE9003280
:10267000CDE90210E74843780278F2A1F048FFF76D
:1026800076FC210EE3484173210C0173210AC172CB
:1026900001468C72407B097BCDE90010DD48C37A8E
:1026A000827AF6A1E648FFF762FC290ED948417408
:1026B000290C0174290AC17301468D73407C097C81
:1026C000CDE90010D348C37B827BF8A1DC48FFF73B
:1026D0004EFC310ECF484175310C0175310AC17481
:1026E00001468E74407D097DCDE90010C948C37C48
:1026F000827CFAA1D248FFF73AFC14E1B87A0428A8
:10270000FBDDFF20C34988750846807A0106C14871
:10271000C07A41EA0041BF48007B41EA0020BD4940
:10272000497B08430206BB48807A0106B94800E0AD
:10273000FAE0C07A41EA0041B648007B41EA002154
:10274000B448407B014301F47F4042EA0022B14893
:10275000807A0106AF48C07A41EA0041AD48007B6B
:1027600041EA0020AB49497B084300F47F0042EA7C
:102770001022A848807A0106A648C07A41EA0041A2
:10278000A448007B41EA0021A248407B014342EA81
:1027900011609F4948609F48807B01069D48C07B2F
:1027A00041EA00419B48007C41EA00209949497C6C
:1027B000084302069748807B01069648C07B41EAA1
:1027C00000419448007C41EA00209249497C08433A
:1027D00000F47F4042EA00228E48807B01068D484B
:1027E000C07B41EA00418B48007C41EA00208949D6
:1027F000497C084300F47F0042EA10228548807B30
:1028000001068448C07B41EA00418248007C41EADD
:1028100000208049497C084342EA10607C49886076
:102820007C48807C01067B48C07C41EA00417948B5
:10283000007D41EA00207749497D0843020675483A
:10284000807C01067348C07C41EA00417148007DEC
:1028500041EA00206F49497D084300F47F4042EA85
:1028600000226C48807C01066A48C07C41EA004135
:102870006848007D41EA00206649497D084300F42C
:102880007F0042EA10226348807C01066148C07CD8
:1028900041EA00415F48007D41EA00215D48407DFA
:1028A000014342EA11605A49C86098A16448FFF7A1
:1028B0005EFB5848407957490979564AD278554BBA
:1028C0009B78CDE90032CDE9021052484378027876
:1028D0005CA15B48FFF74BFB4E48407B4D49097BB1
:1028E000CDE900104B48C37A827A90A15448FFF793
:1028F0003EFB4848407C4749097CCDE900104548EB
:10290000C37B827B95A14E48FFF731FB4148407D58
:102910004049097DCDE900103E48C37C827C9BA1E3
:102920004748FFF724FB00E000BF00BF7FBD10B5A4
:10293000A2480068A2490968401AFA2805D39F48AE
:1029400000689F49086010F07EFA9C4800689D4925
:102950000968401AB0F57A7F05D39848006899490C
:10296000086016F0D9F99548006897490968401A37
:10297000B0F5FA7F0FD3914800689349086015F0CD
:10298000DAFE2448807D022805D02248807DFF2879
:1029900001D0FFF746FE894800688C490968401A53
:1029A0004EF66021884205D3844800688749086054
:1029B00015F0B9FD10BD864A11680222027000228E
:1029C000427082700A0CC2700A0A02714171C02200
:1029D0008271A823C371032303728223437282721C
:1029E000A823C3720323037385234373FF228273D7
:1029F000FF23C373037400234374C0228274A8238B
:102A0000C374032303750123437500228275704745
:102A10002040002008400020D5FDD4DAB2E9D5D20C
:102A200044484350B7FECEF1C6F72CC7EBC9D4B526
:102A3000C82E2E2E2E2E2E2E2E2E2E2E0D0A0000BD
:102A400000480040CDF8BFA8656EB5C44D4143B500
:102A5000D8D6B7CEAA3A2E2E2E2E2E2E2E2E2E2E93
:102A60002E2E2E2E2E2E25642E25642E25642E2508
:102A7000642E25642E25640D0A000000CDA8B9FD42
:102A800044484350BBF1C8A1B5BD4950B5D8D6B7ED
:102A90002E2E2E2E2E2E2E2E2E2E2E2E2E2E256429
:102AA0002E25642E25642E25640D0A00CDA8B9FDBF
:102AB00044484350BBF1C8A1B5BDD7D3CDF8D1DA56
:102AC000C2EB2E2E2E2E2E2E2E2E2E2E2E2E2564A8
:102AD0002E25642E25642E25640D0A00CDA8B9FD8F
:102AE00044484350BBF1C8A1B5BDB5C4C4ACC8CFC0
:102AF000CDF8B9D82E2E2E2E2E2E2E2E2E2E25642B
:102B00002E25642E25642E25640D0A00444843506A
:102B1000B7FECEF1B3ACCAB12CCAB9D3C3BEB2CCE6
:102B2000AC4950B5D8D6B7210D0A0000BEB2CCAC26
:102B30004950B5D8D6B72E2E2E2E2E2E2E2E2E2E16
:102B40002E2E2E2E2E2E2E2E2E2E2E2E2E2E256478
:102B50002E25642E25642E25640D0A00D7D3CDF8CA
:102B6000D1DAC2EB2E2E2E2E2E2E2E2E2E2E2E2EE5
:102B70002E2E2E2E2E2E2E2E2E2E2E2E2E2E256448
:102B80002E25642E25642E25640D0A00C4ACC8CF02
:102B9000CDF8B9D82E2E2E2E2E2E2E2E2E2E2E2EB7
:102BA0002E2E2E2E2E2E2E2E2E2E2E2E2E2E256418
:102BB0002E25642E25642E25640D0A004000002079
:102BC000380000203C000020440000204800002085
:102BD000107AFF1F10B5B0B000F000FA00F071FFDE
:102BE00000BF00F075FF0128FBD001A800F001FA3A
:102BF00001200190002008904FF400700B900020FD
:102C00000C900F90129014901590169021904FF008
:102C1000007022900011249000202490259026908E
:102C20002690279004202990C0052A9040122B90CE
:102C300080012C9040122D9040002F90002101A87F
:102C400000F091FAC4B2012C03D10121CB4800F06D
:102C500056FF204630B010BD10B501E0FFF7DCFC98
:102C6000C748006800F009FF0028F7D1402000F0B5
:102C70005DFF4FF4803000F059FF10BD10B5002407
:102C8000012002F0BAFD4FF40051BE4801F09CFA59
:102C90003220FFF7F1FA4FF40051BA4801F092FAEE
:102CA000AFF24B013D20FEF786FCFFF793FF044691
:102CB0000CB9012010BD0020FCE730B587B000251D
:102CC000FFF7DCFF10B1022007B030BD002108463D
:102CD0000CF00DFEAC48FFF76EFE0020069005904C
:102CE000049000BF00BF06F045F9054600BF00BFD5
:102CF000A648A749002204ABCDE90021029005AA0D
:102D000006A9A4480EF04DF8044600BF00BF2846AF
:102D100006F034F900BF00BF0CB90320D4E79D488A
:102D20000EF07EF89B480EF0EAF89BA19E48FFF754
:102D30001EF900209449887500BFC5E710B500242E
:102D40001F21002000F0DEF9C0F38204224697A183
:102D50009548FFF70CF9204610BD1EB50021002252
:102D6000009201920292864A1268126802F00042B2
:102D700082B100220092904A526902F0800222B190
:102D800080228D4B5A6100229A609DE81C0080E8E9
:102D90001C001EBD7A4A1268126802F40042B2B9E1
:102DA000774A1268126802F4807282B1744A12681B
:102DB000126802F4007252B1714A12681268C2F3CA
:102DC0000D42111F6E4A12689268019200E00021C4
:102DD00000916B4A12680292694A1268D268684B85
:102DE0001A609DE81C0080E81C0000BFD1E7014686
:102DF00072480068006800F0004008B10020704789
:102E0000C1F30C006D4A126850606C48006800689D
:102E100040F04050694A12681060684800680068D5
:102E200040F00040654A126810606348406900F055
:102E3000040020B10420604A5061002050605F48C7
:102E40000068C0685D4A10600120D8E75B480068F0
:102E50008068704707B54FF00040029908605648F7
:102E6000406900F0800020B1802053494861002073
:102E700088600EBD1EB500210022009201920292D0
:102E80003F4A1268126802F0004282B100220092AA
:102E9000494A526902F0800222B18022464B5A61AF
:102EA00000229A609DE81C0080E81C001EBD344A88
:102EB0001268126802F40042B2B9314A126812680C
:102EC00002F4807282B12E4A1268126802F4007213
:102ED00052B12B4A12681268C2F30D42111F284AE0
:102EE00012689268019200E000210091244A126861
:102EF0000292234A1268D268214B1A609DE81C0096
:102F000080E81C0000BFD1E701462C48006800683B
:102F100000F0004008B100207047C1F30C00274AC0
:102F20001268506025480068006840F04050234A0D
:102F30001268106021480068006840F000401F4A95
:102F4000126810601C48406900F0040020B10420A1
:102F5000194A50610020506018480068C068174A3C
:102F600010600120D8E770B504460D461349096882
:102F70002A468868214618F011F870BD400001000B
:102F800050000020000C024008400020C9F7000853
:102F900053FD0008204000206E657469665F61641F
:102FA00064204F4B0D0000000048004073706565C1
:102FB000643D25640D000000009002404C0000209C
:102FC00001B581B0002000900198009002E00098C7
:102FD000401E009000980028F9D10CBD10B50121C9
:102FE000480601F09AFB00214FF0007001F095FBBC
:102FF00010BD01210160002141608160C16001615B
:103000004FF48041416100218161C1614FF4006151
:103010000162002141628162C16201634163816397
:10302000C163402101642021416400218164C164A5
:10303000016541658165C1650166802141660021A8
:103040008166C166016741678167C1674FF0806132
:10305000C0F880104910C0F884100021C0F8881012
:103060004FF40011C0F88C100021C0F89010C0F887
:103070009410C0F89810C0F89C10C0F8A0104FF041
:103080000071C0F8A4104912C0F8A8108901C0F856
:10309000AC104912C0F8B0100021C0F8B410C0F84C
:1030A000B810704738B503460C4600210020009048
:1030B000F948016901F01C014FF4784000EAC3208F
:1030C00001434FF4F86000EA8410014341F002012B
:1030D00041F00101F0484261016100BF0098401CCD
:1030E0000090ED48016901F0010018B1EB4D009826
:1030F000A842F3D3E94D0098A84201D1002038BD81
:103100000120FCE718B502460B4600210020009084
:10311000E148016901F01C014FF4784000EAC22047
:1031200001434FF4F86000EA8310014321F00201EB
:1031300041F00101D848016100BF0098401C009097
:10314000D548016901F0010018B1D44C0098A042A3
:10315000F3D3D24C0098A04201D1002018BDCE4834
:10316000406980B2FAE72DE9F04186B004460F4687
:103170004FF00008002500200590C94E0090C64879
:10318000056925F01C0501A801F0DDF9029EC5487E
:10319000864205D3C448864202D245F0080511E0B4
:1031A000C148864205D3BE48864202D245F00C058E
:1031B00008E0BB48864203D3BC48864200D201E007
:1031C00045F00405B44805614FF40042002138463B
:1031D000FFF768FF18B9002006B0BDE8F081B448D9
:1031E000FFF7EEFE206800284ED000BF0098401C7C
:1031F000009001213846FFF785FF00F0040018B960
:10320000A64900988842F1D3A4490098884201D188
:103210000020E1E7002000904FF480520021384662
:10322000FFF740FF08B90020D6E700BF0098401C18
:10323000009001213846FFF765FF00F0200018B923
:10324000964900988842F1D394490098884201D168
:103250000020C1E70020009010213846FFF752FF00
:10326000804608F0040018B14FF40060206201E0CD
:103270000020206208F0020010B10020606116E01A
:103280004FF48040606112E0206AC0F3CF006169B2
:10329000C1F34F0140EA010200213846FFF702FF67
:1032A00008B9002098E76FF07F40FFF789FE7A4861
:1032B000056880480540D4E901010843E1680843F6
:1032C0002169084361690843A1690843E16908432A
:1032D000216A0843616A0843A16A0843E16A084316
:1032E000216B0843616B084305436B480560D4E9D3
:1032F0000E010843216C0843616C0843A16C08432C
:10330000E16C0843216D0843616D084362494860E0
:10331000A06D8860E06DC860084685694FF6417011
:103320000540B4F86010606E40EA0140A16E0843A9
:10333000E16E0843216F0843616F08430543564817
:103340008561D4E91E0108435349C8615A4885691B
:103350005A480540D4E920010843D4F888100843AE
:10336000D4F88C100843D4F890100843D4F8941083
:103370000843D4F898100843D4F89C100843D4F8B4
:10338000A010084305434C488561D4E9290108434E
:10339000D4F8AC100843D4F8B0100843D4F8B410F3
:1033A00040EA8100D4F8B810084340F400004249D4
:1033B00008600846006840F08000086001200BE7C4
:1033C00030B13D49896941F002013B4A916105E014
:1033D0003949896921F00201374A9161704730B15A
:1033E0003549896941F40051334A916105E0324918
:1033F000896921F40051304A9161704730B1264902
:10340000096841F00401244A116005E02249096875
:1034100021F00401204A116070472748806940F478
:10342000801025498861704730B11B49096841F017
:103430000801194A116005E01749096821F00801DF
:10344000154A1160704700B50120FFF7EDFFFFF747
:10345000E4FF0120FFF7D2FF0120FFF7C0FF0120AA
:10346000FFF7AEFF00BD00200B49896901F00101A3
:1034700009B1012000E0002070470748806940F052
:103480000100054988617047D0B10349896941F05D
:103490000101014A916119E000800240FFFF040030
:1034A00000879303002D3101C00E160200E1F505DF
:1034B000FFFF0F000F8120FF00900240233FDEF846
:1034C000FE49896921F00101FC4A9161704701467A
:1034D0000020FA4A926B0A400AB1012000E0002065
:1034E000704701460020F54A926B0A400AB101205C
:1034F00000E00020704729B1F04AD26B8243EF4BC5
:10350000DA6304E0ED4AD26B0243EC4BDA637047B6
:1035100010B50B794C7943EA0422E84B03441A6452
:10352000CB781B068C7843EA04434C7843EA0423A7
:103530000C7843EA0402E14B03445A6410BD02468E
:10354000DE4B1344186C030A4B710871DB4B1344B8
:10355000586C030ECB70030C8B70030A4B70087011
:10356000704741B1D54A0244126C42F00042D34B3D
:1035700003441A6407E0D14A0244126C22F000426C
:10358000CE4B03441A647047082908D0CB4A024442
:10359000126C42F08042C94B03441A6407E0C74AE8
:1035A0000244126C22F08042C44B03441A647047F8
:1035B000C24A0244126C22F07C52C04B03441A648B
:1035C000BE4A0244126C0A43BC4B03441A6470475F
:1035D0001EB500210022009201920292B84A1268A0
:1035E0001268C2F30D42111F0091B64A1268926828
:1035F000012A05D9B34A126812689268019203E061
:10360000AF4A126892680192AD4A12680292AC4ABF
:103610001268D268AA4B1A609DE81C0080E81C0062
:103620001EBD0FB5002101910291039100916FE041
:103630000099491C0091A2490968096801F40071C8
:10364000A1B19F490968096801F4807171B99C4969
:1036500009689C4A1268116001219A4A12689160B7
:1036600097490968C968964A116051E09449096808
:10367000096801F4807191B991490968096801F4F8
:10368000007161B98F4909688968491C8D4A1268BF
:1036900091608B490968C968894A116038E0884996
:1036A0000968884A12685160864909688968491C16
:1036B000844A12689160834909688968012904D1A4
:1036C0007F4909687F4A126811607D490968096865
:1036D000C1F30D41091F01917A49096889680129DF
:1036E00005D97849096809688968029103E0744935
:1036F00009688968029172490968039170490968EB
:10370000C9686F4A116001A90EC980E80E000FBD9B
:103710006B490968096801F0004111B90099052950
:1037200086D301A90EC980E80E0000BFEFE770B58F
:10373000024600230025002463480068006800F06A
:10374000004008B1002070BD5F48016840F2F450AD
:10375000824208DD92FBF0F392FBF0F600FB1620AC
:1037600010B15B1C00E00123012B1AD15648006800
:10377000006840F04050544E36683060C2F30C0090
:10378000514E3668706050480068006840F0004054
:103790004D4E366830604C480068C0684A4E306014
:1037A00028E0002422E03CB947480068006840F067
:1037B0008050454E3668306040F2F4504860581EE4
:1037C000A0420DD1086840F000500860581EC0EBC0
:1037D000C01000EB4000A2EB8005C5F30C00486070
:1037E000086840F000400860C968641C9C42DAD355
:1037F000354801603548406900F0040020B10420DC
:10380000324E70610020706001209CE770B50C465C
:10381000134600212A4D286000BF18E000EB41123A
:103820004FF00045156044F2F4555560C1EBC115E9
:1038300005EB450504EB850595605D1E8D4204D9B9
:1038400000EB41152035D56000E0D060491C99425D
:10385000E4D31E4DE8601E4D1A4E356070BD184809
:103860000068006800F0004098B9154800680068DA
:1038700000F4807068B11248006812490968486015
:10388000104800688068401C0E4909688860012063
:1038900070470B480068006800F0004058BB0848BB
:1038A0000068006800F4007028B3054800680068EC
:1038B00000F48070F8B9024800680BE00080024014
:1038C00050000020540000204C00002000900240D6
:1038D0001C7D0020FB49096808600020F94909683F
:1038E00048600120F74909688860F7480068C068A7
:1038F000F54908601DE0F4480068006800F00040E9
:10390000B8B9F1480068006800F4007088B9EE4862
:103910000068006800F4807058B9EA480068806860
:10392000401CE84909688860E7480068C068E649C3
:1039300008600020ACE730B50C4613460021E34D8B
:10394000286000BF15E000EB41124FF480151560B0
:10395000C1EBC11505EB450504EB850595605D1EC2
:103960008D4204D900EB41152035D56000E0D060D0
:10397000491C9942E7D3D64D286130BD024600204C
:1039800013680B400BB1012000E000207047014696
:103990000868C0F3C3007047016841F0004101604E
:1039A000704721B1026842F08042026003E0026881
:1039B00022F080420260704702680A43026070474A
:1039C00002680A430260704721B1026822F0006277
:1039D000026003E0026842F000620260704721B1B9
:1039E000026842F48012026003E0026822F480124E
:1039F0000260704721B1026822F08062026003E039
:103A0000026842F080620260704710B541EA0244E9
:103A100043682343436010BD0246002013680B40F7
:103A20000BB1012000E0002070470246002013691E
:103A30000B400BB1012000E000207047016841F00D
:103A400000410160704701460868C0F30D407047AF
:103A500021B1426822F00042426003E0426842F035
:103A6000004242607047024619B15068C0F30C40F2
:103A700070479088C0F30C00FAE700B502460023B7
:103A8000106800F0004058B9106800F4004038B9E0
:103A9000106800F4807018B11046FFF7D4FF034699
:103AA000184600BD30B18A49096841F08001884A52
:103AB000116005E08649096821F08001844A11609F
:103AC00070478348006840F00100814908607047F2
:103AD00000207F49096801F0010109B1012000E0DF
:103AE0000020704701460020794A52690A400AB115
:103AF000012000E00020704775494861704729B1F6
:103B0000734AD2690243724BDA6104E0704AD269A7
:103B100082436F4BDA617047014600206C4A52695C
:103B20000A400AB1012000E000207047684948615E
:103B300070476748406900F0010070476448406979
:103B400000F04000704700206149896901F480114C
:103B500009B1012000E000207047014600205C4AC6
:103B6000126A0A400AB1012000E00020704758485C
:103B7000006AC0F34A4070475548006A80B27047F7
:103B80005348806C70475248C06C70475048006D75
:103B900070474F48406D704700204D49486070475E
:103BA00000204B498860704749494862704770B5AA
:103BB00006460D46002400213046FFF7A3FA0446CE
:103BC00015B144F4804402E04BF6FF7004402246F5
:103BD00000213046FFF766FA08B1012070BD0020D1
:103BE000FCE73C48C06A40F000403A49C862704770
:103BF0000146002000BF04E051F82020354B9A62B6
:103C0000401C0828F8D3704730B13249C96A41F4E2
:103C10000071304AD16205E02E49C96A21F4007171
:103C20002C4AD1627047014600202A4AD26A0A40D3
:103C30000AB1012000E00020704730B12549C96A6F
:103C400041F00401234AD16205E02249C96A21F00A
:103C50000401204AD162704730B11E49C96A41F05F
:103C600002011C4AD16205E01A49C96A21F0020129
:103C7000184AD162704730B11649C96A41F0010152
:103C8000144AD16205E01349C96A21F00101114AC1
:103C9000D16270471048006840F030000D49C1F80B
:103CA000000170470C48006820F020000949C1F865
:103CB00000010846D0F8000140F01000C1F80001F2
:103CC0007047000054000020500000204C000020ED
:103CD00000900240008002400081024038B1434918
:103CE000096841F00801424AC2F8001106E03F4964
:103CF000096821F008013E4AC2F80011704738B146
:103D00003A49096841F00401394AC2F8001106E055
:103D10003649096821F00401354AC2F8001170479C
:103D200038B13249096821F00201314AC2F8001164
:103D300006E02E49096841F002012D4AC2F800113F
:103D400070472A48006840F001002949C1F8000185
:103D5000704700F0805292B120F0805039B1234A70
:103D60000C3212688243224BC3F80C2117E01F4A21
:103D70000C32126802431E4BC3F80C210FE039B11C
:103D80001A4A103212688243194BC3F8102106E018
:103D9000164A103212680243154BC3F810217047BF
:103DA0000146002001F080526AB1104A121D1268CB
:103DB0000A4032B10D4A0C3212680A400AB9012099
:103DC0000EE000200CE0094A083212680A4032B1C5
:103DD000064A0C3212680A400AB9012000E00020AD
:103DE00070470146024808587047000000810240B1
:103DF0000080024032490143324A1160704770B579
:103E0000002100230F22C4781CB32E4C246804F434
:103E1000E064C4F5E064C4F30721C1F10404E3B233
:103E20000A4144789C40E1B28478144021430C0755
:103E3000210E254C05786155047804F01F050124F6
:103E4000AC4005786D11AD0005F1E025C5F80041E5
:103E500009E0047804F01F050124AC401B4D0678EE
:103E6000761145F8264070BD194A0A400243154BA9
:103E70001B1F1A60704739B1124A121D12680243A3
:103E8000104B1B1D1A6006E00E4A121D1268824379
:103E90000C4B1B1D1A607047042808D14FF0E0211D
:103EA000096941F004014FF0E022116107E04FF091
:103EB000E021096921F004014FF0E022116170470F
:103EC0000000FA050CED00E000E400E080E100E015
:103ED00080FFFF1F002044490860091D0860091D7C
:103EE0000860091D086041483F4914310860704767
:103EF00000213D498279002A3AD00A4612680368B7
:103F00009A430B461A600A1D126803689A430B1DF8
:103F10001A60027911440A6803681A430A60324A37
:103F20000832126803689A432F4B08331A601A1D2F
:103F3000126803689A432C4B0C331A604279102A9A
:103F40000ED11A1F126803681A43274B08331A60F0
:103F50001A1D126803681A43234B0C331A600DE0D4
:103F60002149427911440A6803681A430A6005E04E
:103F7000027911440A6803689A430A607047002175
:103F8000016001710C214171002181717047164956
:103F9000103109680143144A10321160704701461C
:103FA0000020114A143212680A400AB1012000E0D0
:103FB000002070470C49143108607047014600200A
:103FC0000022094B1B6803EA0102074B14331B68EC
:103FD0000B4013B10AB1012000E0002070470249F4
:103FE0001431086070470000003C0140FFFF7F0073
:103FF00010B504468C48844208D10121084600F0DF
:104000008CFB0021012000F088FB5EE087488442A1
:1040100008D10121022000F080FB0021022000F0E5
:104020007CFB52E08248844208D10121042000F048
:1040300074FB0021042000F070FB46E07D488442C0
:1040400008D10121082000F068FB0021082000F0C1
:1040500064FB3AE07848844208D10121102000F046
:104060005CFB0021102000F058FB2EE073488442D6
:1040700008D10121202000F050FB0021202000F079
:104080004CFB22E06E48844208D10121402000F020
:1040900044FB0021402000F040FB16E069488442C8
:1040A00008D10121802000F038FB0021802000F0A1
:1040B00034FB0AE06448844207D10121801500F0F6
:1040C0002CFB0021A01500F028FB10BDF0B50A461E
:1040D00000210023002400BF3DE0012505FA01F383
:1040E000156805EA03049C4234D105684F00032695
:1040F000BE40B543056015794E00B54006683543AE
:1041000005601579012D02D01579022D16D185682B
:104110004F000326BE40B543856055794E00B5403B
:10412000866835438560456801268E40B543456005
:10413000456896798E40B6B235434560C5684F00F4
:104140000326BE40B543C560D5794E00B540C6686C
:104150003543C560491C1029BFD3F0BD4FF6FF7130
:1041600001600021017141718171C171704708B511
:104170004FF480320092009A0A430092009AC26182
:10418000C161009AC261C2690092C269009208BD11
:104190000246002013690B400BB1012000E0002013
:1041A00070470146086980B2704702460020536993
:1041B0000B400BB1012000E0002070470146486928
:1041C00080B2704701837047418370470AB1018311
:1041D00000E0418370474161704742694A40426153
:1041E0007047F0B5002300244D07ED0E02FA05F3E9
:1041F000CE1000F1200555F826504E07F70E0F2679
:10420000BE40B543CF1000F1200646F82750CE102F
:1042100000F1200555F8265045EA0304CE1000F1C0
:10422000200545F82640F0BD000002400004024091
:1042300000080240000C024000100240001402403E
:1042400000180240001C0240002002400E49086095
:1042500070470D49486070470B49886070474AF6BF
:10426000AA200949086070474CF6CC40064908600E
:10427000704701460020044AD2680A400AB1012072
:1042800000E00020704700000030004010B5012120
:10429000080700F088FA00214FF0805000F083FA00
:1042A00010BD2D4908627047014600202B4A106856
:1042B00020F0E0000843106070472749086170470C
:1042C0002549A031086070472349A4310860704730
:1042D00021494862704710B5024600201F4B1868FC
:1042E00020F00300104318601D4B1B6843F00403CB
:1042F0001B4C2360012901D130BF00E020BF184BC7
:104300001B6823F00403164C236010BD134800689B
:1043100040F00400114908600846006840F00200BF
:1043200008600F48006840F004000D49086000BFB5
:1043300000BF30BF704701460020084A52680A405B
:104340000AB1012000E0002070470449096841EAF1
:104350008001024A1160704700000E420070004068
:1043600010ED00E0FA48006840F00100F8490860EC
:104370000020F74908310860F5480068F549084011
:10438000F3490860F448091D0860081F006820F41C
:104390008020091F08600020ED490C31086070473B
:1043A0000021EB4A921C117011460870704710B53D
:1043B00001460022002300204A11012A02D1E44CC8
:1043C000236808E0022A03D1E14C7034236802E03C
:1043D000DF4C7434236801F01F02012494401C4018
:1043E0000CB1012000E0002010BD38B50020009085
:1043F0000024002500BF3120FFF7D9FF05460098B3
:10440000401C00900098B0F5A06F01D0002DF2D0B4
:104410003120FFF7CCFF08B1012400E00024204642
:1044200038BD01460020CA4A106820F0F80040EA72
:10443000C10010607047C949086070470021C44A34
:10444000703211701170012802D004280AD104E0E2
:104450000121BF4A7032117005E00521BC4A70325B
:10446000117000E000BF00BF7047BD490860704791
:1044700070B5049C41EA82150126C6EB530645EA55
:104480000645054345EA0465B14E361D356070BDED
:10449000B24908667047820142EA0172AC4B84332C
:1044A0001A607047AD4988667047AC49C864704768
:1044B00002460020A64B0833186820F0EC6042EA60
:1044C00001031843A24B08331860704702460020CE
:1044D0009F4B0833186820F0784042EA01031843E4
:1044E0009B4B08331860704701460020984A0832F9
:1044F000106820F0030008431060704794480830AB
:10450000006800F00C00704701460020904A083215
:10451000106820F0F000084310607047014600204A
:104520008B4A0832106820F4E0500843106070474E
:1045300001460020864A0832106820F4604040EAB4
:10454000C10010607047F0B5002100220024022550
:10455000002602237E4F08373F6807F00C0121B187
:10456000042905D0082937D105E07E4F076036E0E1
:104570007D4F076033E0764F3F1D3F68C7F380569D
:10458000734F3F1D3F6807F03F036EB1764FB7FB97
:10459000F3F7DFF8BCC10CF1040CDCF800C0CCF37D
:1045A000881C07FB0CF40CE06E4FB7FBF3F7DFF849
:1045B000A0C10CF1040CDCF800C0CCF3881C07FB94
:1045C0000CF4634F3F1D3F68C7F301477F1C7D001C
:1045D000B4FBF5F7076002E0624F076000BF00BF61
:1045E0005B4F08373F6807F0F00109095F4F7A5CBD
:1045F0000768D7404760564F08373F6807F4E051D7
:10460000890A5A4F7A5C4768D7408760504F08370D
:104610003F6807F46041490B544F7A5C4768D740C4
:10462000C760F0BD002100F44072B2F5407F0AD1AE
:10463000474A0832116821F4F8114D4A02401143EB
:10464000434A08321160424A70321268C0F30B03C9
:104650001A433F4B70331A60704741494439086030
:1046600070473F49403908607047424908607047C9
:1046700039B1374A303212680243354B30331A6051
:1046800006E0334A303212688243314B30331A60CD
:10469000704739B12E4A3432126802432C4B3433FE
:1046A0001A6006E02A4A343212688243284B3433B7
:1046B0001A60704739B1264A383212680243244BD7
:1046C00038331A6006E0224A383212688243204B9F
:1046D00038331A60704739B11D4A403212680243BC
:1046E0001B4B40331A6006E0194A4032126882437D
:1046F000174B40331A60704739B1154A443212687B
:104700000243134B44331A6006E0114A44321268E4
:1047100082430F4B44331A60704739B10C4A103250
:10472000126802430A4B10331A6006E0084A10323E
:1047300012688243064B10331A607047E1B1044A95
:10474000143212680243024B14331A6019E000005D
:1047500000380240FFFFF6FE103000240000474200
:10476000800E47420024F40040787D015C00002068
:10477000FFFCFF0F5C0147425B4A126882435A4BC1
:104780001A60704739B1584A121D12680243564BDD
:104790001B1D1A6006E0544A121D12688243524BD8
:1047A0001B1D1A60704739B14F4A0C321268024320
:1047B0004D4B0C331A6006E04B4A0C3212688243B0
:1047C000494B0C331A60704739B1474A10321268AE
:1047D0000243454B10331A6006E0434A1032126818
:1047E0008243414B10331A60704739B13E4A3C3224
:1047F000126802433C4B3C331A6006E03A4A3C32B2
:1048000012688243384B3C331A60704739B1364ADC
:10481000403212680243344B40331A6006E0324A99
:10482000403212688243304B40331A60704739B1CE
:104830002D4A4432126802432B4B44331A6006E07F
:10484000294A443212688243274B44331A60704726
:1048500039B1254A4C3212680243234B4C331A605B
:1048600006E0214A4C32126882431F4B4C331A60D7
:10487000704739B11C4A5032126802431A4B503308
:104880001A6006E0184A503212688243164B5033C1
:104890001A60704739B1144AD21F12780243124B82
:1048A000DB1F1A7006E0104AD21F127882430E4BAB
:1048B000DB1F1A7070470C486030006840F0807051
:1048C000094960310860704701460020064A083AED
:1048D00012680A400AB1012000E000207047024936
:1048E000891F0870704700001438024008B5002284
:1048F000009200200021CA22FE4B1A6053221A6047
:10490000FC4A183A126822F0A002FA4B183B1A60CF
:1049100000BFF84A183A126802F02001009A521CAF
:104920000092009AB2F5004F01D00029F1D0F14A6F
:10493000183A126802F020020AB1012000E00020BB
:10494000FF22EC4B1A6008BD08B50022009200203F
:104950000021E84A183A126802F04002E2B9421E09
:10496000E44B183B1A6000BFE24A183A126802F0A2
:104970004001009A521C0092009AB2F5803F01D08B
:104980000029F1D0DB4A183A126802F040020AB15D
:10499000012002E0002000E0012008BD38B5002021
:1049A000009000240025CA20D249086053200860E6
:1049B000FFF7CAFF00B947E00020CE49243908605C
:1049C00042F20110091D0860081D006800F0070090
:1049D000091D086000BFC7481838006800F00404CB
:1049E0000098401C00900098B0F5803F01D0002C4A
:1049F000F1D0C0481838006800F0040008B900255C
:104A000022E0BC481C3800680020BA491C39086004
:104A10004FF6FF70B74910390860B748091F0860A2
:104A20000020B4490C390860091D0860091D0860A0
:104A3000B04918390860AF491C310860FFF756FFCC
:104A400008B9002500E00125FF20AA490860284692
:104A500038BDA8481838006820F08000A5491839EA
:104A60000860704730B504460025CA20A149086097
:104A700053200860FFF768FF00B91DE09D481C380F
:104A8000006820F040009B491C3908600846006817
:104A90002168084397491C39086096491439A06871
:104AA000086008460068A18840EA0140914914392D
:104AB0000860FFF7CEFF0125FF208E4908602846D9
:104AC00030BD002101607F214160FF21816070477E
:104AD00018B1FF21874A116004E0CA21854A11609C
:104AE00053211160704730B504460025CA20814922
:104AF000086053200860FFF727FF00B914E044B1B5
:104B00007C481C38006840F010007A491C39086065
:104B100007E078481C38006820F0100075491C39FF
:104B20000860FFF796FF0125FF20724908602846BC
:104B300030BD0146002204E0501CC2B2A1F10A00BF
:104B4000C1B20A29F8DA100741EA1060704701463D
:104B500000BF080900EB8000420001F00F00104484
:104B6000C0B270472DE9F04105460C4600260027EB
:104B700055B960481C38006800F0400000B102E000
:104B80000020E07000BF0EE05A481C38006800F0BA
:104B9000400020B12078FFF7DAFF064602E000204F
:104BA000E07000BF00BF55B120780004617840EA92
:104BB0000120A1780843E17840EA014611E020781D
:104BC000FFF7B7FF4FEA00486078FFF7B2FF48EA07
:104BD0000028A078FFF7ADFF48EA0008E07848EA2F
:104BE0000046CA204349086053200860FFF7ACFE26
:104BF00008B900270CE0414830403E49243908609C
:104C0000FFF727FFFFF772FE08B9002700E0012732
:104C1000FF20384908603846BDE8F0810021C170A6
:104C2000017041708170704770B506460C460025D2
:104C3000304824380068314900EA0105C5F30540D1
:104C40002070C5F30620607005F07F00A07005F4A9
:104C50008000000CE0705EB92078FFF778FF2070CC
:104C60006078FFF774FF6070A078FFF770FFA070A6
:104C700070BD2DE9F04105460C46002600274DB9D0
:104C8000607800F01000102804D1607820F0100047
:104C90000A30607005B908E06078FFF758FF0646F3
:104CA000A078FFF754FF064600BF55B1E078000436
:104CB000617840EA0120A1780843217840EA413632
:104CC00011E0E078FFF735FF4FEA00486078FFF722
:104CD00030FF48EA0028A078FFF72BFF48EA0008D9
:104CE000207848EA4036CA2002490860532008600C
:104CF00006E0000024280040FF007F007F7F7F0047
:104D0000FFF722FE08B900270BE0FC483040FC49C1
:104D10000860FFF79EFEFFF7E9FD08B9002700E0F5
:104D20000127FF20F649203108603846BDE8F081B0
:104D300001210170817041700021C170704770B510
:104D400006460C460025EE480068EC4900EA0105DD
:104D5000280CE070C5F30420607005F03F00A070DF
:104D6000C5F3423020705EB9E078FFF7F0FEE070E6
:104D70006078FFF7ECFE6070A078FFF7E8FEA070A7
:104D800070BD2DE9F04105460E46144600276DB969
:104D9000DB48001D006800F0400000B102E0002088
:104DA000E07000BFA06800B91AE019E0D448001D07
:104DB000006800F0400020B12078FFF7C8FE0746E9
:104DC00002E00020E07000BFA06820B9207BFFF760
:104DD000BEFE074604E0207BFFF7B9FE074600BF92
:104DE00095B120780004617840EA0120A178084359
:104DF000E17840EA0140217B40EA0160A168084374
:104E0000616840EA01071BE02078FFF792FE4FEA55
:104E100000486078FFF78DFE48EA0028A078FFF789
:104E200088FE48EA0008E07848EA0048207BFFF75F
:104E300080FE48EA0060A1680843616840EA010713
:104E4000CA20AF492031086053200860B6F5807F42
:104E500003D1AB481830076002E0A9481C30076056
:104E6000FF20A74920310860BDE8F0810021C17012
:104E700001704170817081600121017300214160E6
:104E800070472DE9F04106460F4614460025B7F558
:104E9000807F03D19A481830056802E098481C309A
:104EA0000568C5F305402070C5F30620607005F065
:104EB0007F00A07005F48000000CE070C5F3056071
:104EC000207305F08040A06005F0803060607EB9FE
:104ED0002078FFF73CFE20706078FFF738FE6070A6
:104EE000A078FFF734FEA070207BFFF730FE207320
:104EF000BDE8F08138B5024600240094002300206C
:104F0000CA247F4D20352C6053242C6041B17C4C49
:104F1000241D246814437A4D2D1D2C6001201EE0B1
:104F2000774C241D24689443754D2D1D2C6000BFC3
:104F3000734C0834246804EA1223009C641C009417
:104F4000009CB4F5803F01D0002BF1D06C4C0834AC
:104F5000246804EA12240CB9002000E00120FF2498
:104F6000674D20352C6038BDCA21654A203211605A
:104F7000532111606249091D096821F00701604A47
:104F8000121D11601146096801431160FF215C4A3E
:104F9000203211607047CA21594A203211605321D2
:104FA0001160574910310860FF2111607047544863
:104FB0001030006880B2704718B501460023009396
:104FC00000220020CA234E4C203423605323236048
:104FD00049B14B4B1B1D1B6843F48063484C241D97
:104FE000236001201FE0464B1B1D1B6823F48063D8
:104FF000434C241D236000BF414B08331B6803F062
:105000000402009B5B1C0093009BB3F5803F01D022
:10501000002AF1D03A4B08331B6803F004030BB9A4
:10502000002000E00120FF23354C2034236018BD10
:10503000CA22334B20331A6053221A60304A121DA1
:10504000126822F480222E4B1B1D1A601A46126829
:1050500040EA01031A432A4B1B1D1A60FF22284B0A
:1050600020331A6070472648001D006800F4802035
:105070007047CA22224B20331A6053221A60204AFA
:10508000121D126822F4E0021D4B1B1D1A601A4605
:10509000126840EA01031A43194B1B1D1A60FF22D4
:1050A000174B20331A60704770B504460D46002632
:1050B000CA2013492031086053200860FFF744FCE0
:1050C00000B907E044EA05000D4914310860FFF714
:1050D000C0FC0126FF200A4920310860304670BD1F
:1050E00030B504460025CA20054920310860532008
:1050F0000860FFF729FC28B915E000003FFFFF001A
:105100000428004034B1B848006840F08000B64937
:10511000086005E0B448006820F08000B2490860EB
:10512000FFF797FC0125FF20AF491C310860284696
:1051300030BDCA21AC4A1C3211605321116030B11C
:10514000A949096841F40001A74A116005E0A64990
:10515000096821F40001A44A1160FF21A24A1C320F
:105160001160704710B50A4600219F4B1B6840F63E
:10517000080423EA04011AB140F40063194300E073
:105180000143CA23984C1C34236053232360964B5D
:105190001960FF23236010BD2DE9F04180460C46C5
:1051A0001546002600279048283000688F4900EAFD
:1051B00001068D482C3000688D4900EA0107C6F3CE
:1051C00005402070C6F30620607006F07F00A070D6
:1051D00006F48000000CE0700020E870C7F30420A3
:1051E000687007F03F00A870C7F342302870B8F12C
:1051F000000F17D12078FFF7AAFC20706078FFF726
:10520000A6FC6070A078FFF7A2FCA0706878FFF79A
:105210009EFC6870A878FFF79AFCA8702878FFF7C2
:1052200096FC2870BDE8F08141B96F4A38321268A7
:1052300022EA40026C4B38331A6007E06A4A38327F
:10524000126842EA4002684B38331A60704739B13D
:10525000654A383212680243634B38331A6006E0FD
:10526000614A3832126882435F4B38331A607047A4
:1052700008B5002200925C4A48320092009A02EB84
:1052800080020092009A116008BD08B50146002016
:105290000090554848300090009800EB8100009045
:1052A0000098006808BD50493831096821F4803100
:1052B0004D4A383211601146096801431160704748
:1052C00049493831096821F40031474A38321160C0
:1052D0001146096801431160704743493831096834
:1052E00021F48021404A3832116011460968014397
:1052F00011607047CA223C4B1C331A6053221A605B
:1053000081B1394A126820F004031A43364B1A60FF
:10531000354A3832126800F004031A43324B3833EE
:105320001A600FE0304A126820F004039A432E4BB3
:105330001A602D4A3832126800F004039A432A4B4F
:1053400038331A60FF22284B1C331A60704710B59F
:10535000014600200022244B1B1D1B6843F6777476
:1053600003EA040202EA01030BB1012000E000207D
:1053700010BD81B241F080011B4A121D126802F07B
:10538000800262EA0101184A121D1160704730B5AF
:105390000146002000220023134C3834246804F016
:1053A0000402114C24680C4002EAD13544EA05039A
:1053B0000D4C241D246804EA11121BB194B20CB1E7
:1053C000012000E0002030BD002101098AB242F036
:1053D0008002054B1B1D1B6803F0800363EA020279
:1053E000014B1B1D1A607047082800407F7F7F001B
:1053F0003FFFFF0010B50446E348844208D1012175
:105400008014FFF7E1F90021A014FFF7DDF916E0A1
:10541000DE48844208D101210014FFF7C4F90021BD
:105420002014FFF7C0F90AE0D948844207D10121CE
:10543000C013FFF7B8F90021E013FFF7B4F910BD6E
:1054400010B50022028802F441520B884C88234395
:105450008C882343CC8823430C8923434C892343E2
:105460008C892343CC8923431A430280838B4FF2D8
:10547000FF74234083830B8A038210BD2DE9F04F14
:10548000002502230024012700220026944690468E
:105490009146B0F81CA04FF2400B0AEA0B0AA0F8A4
:1054A0001CA04FF0020AA0F820A0858BD1F808A01C
:1054B000BAF1020F01D100BF6CE0B1F804A0BAF15B
:1054C000000F01D1012700E00227DFF8C8A2DAF8B7
:1054D00000A00AF4000ABAF1000F09D0DFF8B4A264
:1054E000DAF800A02AF4000ADFF8A8B2CBF800A08E
:1054F000DFF8A0A20AF17C0ADAF800A0CAF3881843
:10550000DFF890A20AF17C0ADAF800A0CAF3027967
:10551000DFF880A2AAF1040ADAF800A00AF03F0C32
:10552000DFF874A2BAFBFCFA0AFB08FABAFBF9F638
:10553000B1F806A0BAF5007F0ED14FEA162A0AEBA1
:105540008A0A4FEA4A0AD1F808B0BAFBFBFA0AF114
:10555000050A1FFA8AF20FE04FEA471AB6FBFAFA79
:105560000AEB8A0A4FEA4A0AD1F808B0BAFBFBFAFA
:105570000AF1050A1FFA8AF24FF00A0AB2FBFAF2A0
:1055800002F00104A2EB040ACAF34F034FF6FF7ABC
:105590000AEA0424022B01DBFF2B01DD0223002495
:1055A000B1F806A04AEA040A4AEA030AA0F820A0D1
:1055B000B1F804A0B1F80CB04AEA0B0AB1F802B095
:1055C0004AEA0B0AB1F800B04AEA0B0A4AF4006A48
:1055D0004AEA05058583BDE8F08F002101804180FE
:1055E0008180C180018141818181C1810721018246
:1055F00070470021018041808180C180022181604B
:1056000000218181704721B1028842F0400202806E
:1056100004E002884FF6BF731A400280704721B140
:10562000828B42F48062828304E0828B4FF6FF33E8
:105630001A408283704702884FF2FF731A4002803B
:1056400002880A4302807047B1F5804F04D1028876
:1056500042F48042028004E002884BF6FF731A4055
:10566000028070474FF6FF62914204D0028842F4F4
:105670008072028004E002884FF6FF631A400280C5
:10568000704721B1828842F00402828004E082885F
:105690004FF6FB731A408280704721B1828842F036
:1056A0001002828004E082884FF6EF731A408280F5
:1056B00070470146888970478181704721B102880F
:1056C00042F40052028004E002884DF6FF731A4053
:1056D00002807047018841F4805101807047024682
:1056E0000020012901D0108B00E0908A704701460C
:1056F000088A70471AB183880B43838002E083884D
:105700008B438380704730B5002400230C110125A2
:10571000A540ABB21AB185881D43858002E085881B
:105720009D43858030BD0246002013890B400BB19C
:10573000012000E000207047CA4302817047F0B5A5
:105740000246002000240023002501F00F07012657
:10575000BE40B4B20B1101269E40B3B2968806EA51
:1057600003051689264016B10DB1012000E0002086
:10577000F0BD10B5002201F00F040123A3409AB23E
:10578000D343038110BD00000030014000380040C9
:10579000003C00400838024040787D0110B50121EE
:1057A0008803FFF711F800214FF48040FFF70CF851
:1057B00010BD1A490860704730B500228B071C0FD6
:1057C0000F2303FA04F2154B08338C1053F82430DE
:1057D0009343124C08348D1044F8253023468C1026
:1057E00053F824308C07240F00FA04F423430B4CA5
:1057F00008348D1044F8253030BD094908607047E1
:10580000084908607047002004492031096801F404
:10581000807109B1012000E000207047003801408C
:10582000DC0027420004274210B50446FE488442AB
:1058300008D101210846FEF7C7FF00210120FEF72D
:10584000C3FF9DE0B4F1804F08D101210846FEF767
:10585000AAFF00210120FEF7A6FF91E0F348844251
:1058600008D101210220FEF79EFF00210220FEF751
:105870009AFF85E0EE48844208D101210420FEF71A
:1058800092FF00210420FEF78EFF79E0E948844270
:1058900008D101210820FEF786FF00210820FEF72D
:1058A00082FF6DE0E448844208D101211020FEF718
:1058B0007AFF00211020FEF776FF61E0DF48844286
:1058C00008D101212020FEF76EFF00212020FEF7E5
:1058D0006AFF55E0DA48844208D101210220FEF730
:1058E00073FF00210220FEF76FFF49E0D548844294
:1058F00009D101210804FEF767FF00214FF4803031
:10590000FEF762FF3CE0D048844209D101214804FF
:10591000FEF75AFF00214FF40030FEF755FF2FE04D
:10592000CA48844209D101218804FEF74DFF0021B5
:105930004FF48020FEF748FF22E0C548844208D19A
:1059400001214020FEF72FFF00214020FEF72BFF12
:1059500016E0C048844208D101218020FEF723FFD1
:1059600000218020FEF71FFF0AE0BB48844207D1D8
:1059700001218015FEF717FF0021A015FEF713FF88
:1059800010BD00220288A84B98420ED0AC4B984222
:105990000BD0B0F1804F08D0A44B984205D0A44B57
:1059A000984202D0A34B984204D14FF68F731A400D
:1059B0004B881A43A04B984207D0A04B984204D082
:1059C0004FF6FF431A400B891A4302804B68C362AB
:1059D0000B880385944B984202D0994B984201D191
:1059E0008B7A03860123838270474FF0FF31416039
:1059F000002101800181418081727047018582828E
:105A000070470A46002101884FF68F7319401143F1
:105A10000180704741627047C16270470146486A21
:105A200070470146088D704721B1028842F002029A
:105A3000028004E002884FF6FD731A40028070472E
:105A400021B1028842F00402028004E002884FF68D
:105A5000FB731A400280704721B1028842F0800235
:105A6000028004E002884FF67F731A40028070477C
:105A700002884FF6F7731A40028002880A430280B8
:105A8000704702884FF6FF431A40028002880A439B
:105A90000280704721B1028842F00102028004E0D6
:105AA00002884FF6FE731A400280704770B50024DA
:105AB00000220023058C4FF6FE7635400584028CCB
:105AC0008388048B4FF68F752C40B51E2C400D88B3
:105AD0002C43751E2A408D892A434D882A43524DF6
